:100000000C94F8000C9420010C9420010C94200115
:100010000C9420010C9420010C9420010C942001DC
:100020000C9420010C9420010C940E110C94A00F40
:100030000C9420010C9420010C9420010C942001BC
:100040000C9420010C9420010C9420010C942001AC
:100050000C9420010C9420010C9420010C94970A1C
:100060000C9420010C9420010C9420010C9420018C
:100070000C9420010C9420010C9420010C9420017C
:100080000C9420010C9420010C9420010C9420016C
:100090000C9420010C9420010C9420010C9420015C
:1000A0000C9420010C9420010C94200178027F0212
:1000B00086028D029402AB029B02AB02A2021B03DA
:1000C0001F03230327032B032F033303B70BBA0BA1
:1000D000A90BAD0BB30BDB0BDB0BDB0BBE0BC20BAE
:1000E000C60BCC0BD00BDB0BD60B000000020009BB
:1000F0000F0000030401000C0000000000000000DD
:100100000000000000000000000408020110408010
:1001100040102040804080080204018040201002EE
:10012000011080102040402004040404040304054E
:100130000202020204030202020206060606060684
:100140000404020202040400000000250028002B21
:10015000002E00310000000000240027002A002D9E
:10016000003000080B000202020100090400000137
:1001700002020000052400100105240101010424ED
:10018000020605240600010705810310004009044A
:100190000100020A000000070502024000000705F6
:1001A000830240000012010002EF020140412336A9
:1001B0008000010102030112010002000000404121
:1001C00023368000010102030141726475696E6F7C
:1001D000204C4C430041726475696E6F204C656F12
:1001E0006E6172646F00040309047A01420DBA0162
:1001F00011241FBECFEFDAE0DEBFCDBF11E0A0E0DB
:10020000B1E0E0E6F0E302C005900D92AE34B10734
:10021000D9F723E0AEE4B1E001C01D92A033B207EC
:10022000E1F711E0CEEED1E004C02297FE010E947A
:100230008015CA3ED107C9F70E943E120C942318BC
:100240000C94000061E08EE00E94DC0B61E08FE026
:100250000E94DC0B40E855E260E070E084EC92E044
:100260000E943C0D40E050E06AE774E48FE292E0C7
:100270000E948D0740E050E06AE774E48BEE91E065
:100280000E948D0740E050E06AE774E487EA91E05D
:100290000E948D0740E050E06AE774E483E691E055
:1002A0000E948D076FE272E08EE491E00E947A086E
:1002B0006BEE71E08EE491E00E947A0867EA71E0EB
:1002C0008EE491E00E947A0863E671E08EE491E0AA
:1002D0000E947A0848E352E069E171E083E792E026
:1002E0000E949D0940EC51E06EE171E083E792E0ED
:1002F0000C949D09CF92EF920F93109273028EE5AA
:100300008093B40284E28093B5028CE28093B602BB
:100310001092BA021092B9021092B8021092B7026B
:1003200010927402CC24C39485E0E82E04E023E00C
:1003300042E061E08FE292E00E94210725E044E084
:1003400061E08BEE91E00E94210729E048E061E046
:1003500087EA91E00E94210720E14AE061E083E61C
:1003600091E00E9421078EE491E00F91EF90CF90F1
:100370000C9477088091B9029091BA020C943E16C1
:100380008F929F92AF92BF92CF92DF92EF92FF92A5
:100390000F931F93CF93DF93CDB7DEB766970FB65A
:1003A000F894DEBF0FBECDBF8C014B0161E08EE043
:1003B0000E94150C60E08FE00E94150CCE010196A2
:1003C0007C0180E1F70111928A95E9F70E5F1F4FDA
:1003D0005701CC24C394D12CC814D904D4F4F80107
:1003E000619171918F01CE0141960E941C12CE0144
:1003F00041960E943212F50161937193819391931A
:100400005F01CE0141960E94AE11FFEFCF1ADF0AC5
:10041000E3CFB7018EE491E00E948A088EE491E078
:100420000E94920968EE73E080E090E00E94040B65
:100430006DE484EC92E00E944B0C60E08EE00E9440
:10044000150C61E08FE00E94150C66960FB6F894CB
:10045000DEBF0FBECDBFDF91CF911F910F91FF90F7
:10046000EF90DF90CF90BF90AF909F908F900895C6
:1004700040E050E0BA018FE292E00E94100540E0B7
:1004800050E0BA018BEE91E00E94100540E050E090
:10049000BA0187EA91E00E94100540E050E0BA01FD
:1004A00083E691E00E94100568E584EC92E00C94EC
:1004B0004B0C84EC92E00E94750C892B51F084EC7B
:1004C00092E00E94850C682F83E792E00E946C0AFC
:1004D000F0CF08950F931F93DC0112960C9110E05A
:1004E00009301105C0F5F801EA5AFF4F0C947E154A
:1004F000DC01ED91FC910084F185E02D29C0DC0147
:10050000ED91FC910284F385E02D22C0DC01ED9198
:10051000FC910484F585E02D1BC0DC01ED91FC917C
:100520000684F785E02D14C0DC01ED91FC91008874
:10053000F189E02D0DC0DC01ED91FC910288F38979
:10054000E02D06C0DC01ED91FC910488F589E02DD9
:100550001F910F9109941F910F910895CF93DF93ED
:10056000EC01CB01BA0126E030E040E050E00E940F
:100570005F15623071058105910559F18CF46115A3
:10058000710581059105F1F06130710581059105D5
:10059000C1F5E881F9810480F581E02D65E02DC089
:1005A000643071058105910511F1D4F06530710554
:1005B0008105910531F5E881F9810480F581E02D0F
:1005C00066E01BC0E881F9810480F581E02D64E0DC
:1005D00014C0E881F9810480F581E02D61E00DC04F
:1005E000E881F9810480F581E02D63E006C0E881AF
:1005F000F9810480F581E02D62E0CE01DF91CF9199
:100600000994DF91CF910895CF93DF9347705527D9
:100610006627772741505109DC01CD91DC914730A5
:10062000510528F4415A5F4FFA010C947E15EC8174
:10063000FD8161E01BC0EC81FD8165E017C0EC81AC
:10064000FD8164E013C0EC81FD8166E00FC0EC81A8
:10065000FD8162E00BC0EC81FD816AE007C0EC81A6
:10066000FD8168E003C0EC81FD8169E0DF91CF91FD
:100670000994AF92BF92DF92EF92FF920F931F9374
:10068000CF93DF931F92CDB7DEB78C01FC0182813F
:10069000843041F0883031F0833031F0863021F001
:1006A00022E003C024E001C023E0A12CB12CE62EFF
:1006B000F12CDD24D394F801EA0DFB1DC7010A2CAF
:1006C00002C0959587950A94E2F7678180FD6D25B4
:1006D000838129830E94150CFFEFAF1ABF0A29817D
:1006E000A21648F30F90DF91CF911F910F91FF90C9
:1006F000EF90DF90BF90AF9008950F931F93CF932B
:10070000DF93EC01E881F9810480F581E02D8C0113
:100710000D5B1F4FD8018C91882311F062E001C05E
:1007200060E0CE010995E881F9810480F581E02D32
:10073000D8018C91882311F063E001C061E0CE0103
:1007400009958BA59CA50E943E0BE881F981048048
:10075000F581E02DD8018C91882311F062E001C071
:1007600060E0CE01DF91CF911F910F910994CF935B
:10077000DF93EC0120E030E0A9016B897C898D8951
:100780009E890E94A11418161CF4EFA5F8A902C0B6
:10079000E9A9FAA9DF91CF910994437055276627FB
:1007A0007727DC01ED91FC910480F581E02D42304A
:1007B00051056105710571F0433051056105710501
:1007C00059F0413051056105710511F062E005C035
:1007D00063E003C061E001C060E00994CF93DF9360
:1007E000EC01CB01BA0123E030E040E050E00E9490
:1007F0005F15613071058105910581F062307105E9
:100800008105910591F0672B682B692BC1F4E88174
:10081000F9810480F581E02D64E00DC0E881F98163
:100820000480F581E02D61E006C0E881F981048053
:10083000F581E02D62E0CE01DF91CF910994DF9147
:10084000CF9108954370552766277727DC01ED91F6
:10085000FC910480F581E02D423051056105710560
:1008600071F0433051056105710559F04130510572
:100870006105710511F065E005C066E003C06AE03E
:1008800001C069E00994CF93DF93EC018A8188234A
:1008900081F0E881F9810480F581E02D60E0CE01EE
:1008A00009958EA58F3F29F06DA5DF91CF910C940E
:1008B000150CDF91CF910895CF93DF93EC018A81DE
:1008C000882351F161E08B810E94DC0B61E08C8117
:1008D0000E94DC0B8A81843011F0883039F461E0A9
:1008E0008D810E94DC0B61E08E8106C0833011F0A7
:1008F000863021F461E08D810E94DC0B8EA58F3F54
:1009000059F061E00E94DC0B6DA581E068278EA59F
:10091000DF91CF910C94150CDF91CF910895CF9278
:10092000DF92EF92FF920F931F93CF93DF93EC012F
:100930004BA15CA16DA17EA1452B462B472B09F451
:100940004DC00E94E10A6B017C010FA118A529A5E9
:100950003AA54BA15CA16DA17EA1400F511F621F62
:10096000731F401751076207730730F0C416D5068E
:10097000E606F70658F405C0C416D506E606F706DF
:1009800068F1C016D106E206F30640F5FE01ED5B04
:10099000FF4F80814B855C856D857E85882329F09E
:1009A0004F5F5F4F6F4F7F4F04C041505109610946
:1009B00071094B875C876D877E87E881F9814B855C
:1009C0005C856D857E850680F781E02DCE010995D9
:1009D000CFA2D8A6E9A6FAA681E001C080E0DF9107
:1009E000CF911F910F91FF90EF90DF90CF900895DE
:1009F0000F931F93FC016785708981899289038514
:100A0000148525853685601B710B820B930B1F9116
:100A10000F910895FC0163857485858596850895F9
:100A2000FC0143875487658776874787508B618BA6
:100A3000728B13AA14AA15AA16AA13A214A215A29D
:100A400016A208952F923F924F925F926F927F92DB
:100A50008F929F92AF92BF92CF92DF92EF92FF92CE
:100A60000F931F93CF93DF9300D000D0CDB7DEB7A5
:100A70001C01FC0187849088A188B28883859485B5
:100A8000A585B685881A990AAA0ABB0A638974895A
:100A9000858996899B01AC010E94A5146B017C019C
:100AA000F101638D748D858D968D9B01AC010E9443
:100AB000EE129B01AC01C701B6010E9456130E94C1
:100AC000BE1381149104A104B104A1F46230710534
:100AD000810591050CF07CC0F10113A214A215A2AE
:100AE00016A2138A148A158A168A13AA14AA15AA9A
:100AF00016AA03C1F10103A914A925A936A9ED5B22
:100B0000FF4F181419041A041B04FCF410161106E4
:100B1000120613064CF4681579058A059B054CF5F9
:100B20002081211155C025C0011511052105310570
:100B300009F44EC0681579058A059B050CF048C07C
:100B40008081882309F444C037C0101611061206AC
:100B50001306F4F4002711279801081919092A0926
:100B60003B0960177107820793071CF42081222339
:100B700079F19B01AC0188279927DC01821B930B3B
:100B8000A40BB50BF10183AB94ABA5ABB6AB20C006
:100B90000115110521053105D9F0CC24DD2476019C
:100BA000C818D908EA08FB086C157D058E059F0555
:100BB0007CF4808181110CC03095209510950195B1
:100BC0001F4F2F4F3F4FF10103AB14AB25AB36AB9B
:100BD000F101C3A8D4A8E5A8F6A881010D5B1F4FB9
:100BE000C114D104E104F10491F487A990ADA1AD41
:100BF000B2AD83AF94AFA5AFB6AF81E018141904BE
:100C00001A041B040CF080E0F801808340C0F1015D
:100C100083AC94ACA5ACB6ACA5019401C501B401FC
:100C20000E94EE122B013C01C701B6010E94F11394
:100C300020E030E040E850E40E94A51420E030E0DD
:100C400040E85FE30E94EE129B01AC01C301B201D8
:100C50000E9456139B01AC01C501B4010E94ED1224
:100C60002B013C01F101FF9680809180A280B3802E
:100C70009401A5010E94A114181614F44201530115
:100C8000C401D501F10183AF94AFA5AFB6AFFFEFBB
:100C9000CF1ADF0AEF0AFF0AF101C3AAD4AAE5AA14
:100CA000F6AA23AD34AD45AD56ADCA01B9012983CD
:100CB0003A834B835C830E94C313F10163A374A343
:100CC00085A396A329813A814B815C8160E074E21F
:100CD00084E799E40E945613F101638B748B858B32
:100CE000968BF8012081211108C0DC01CB01B0589E
:100CF000F101838B948BA58BB68B0F900F900F9087
:100D00000F90DF91CF911F910F91FF90EF90DF90A7
:100D1000CF90BF90AF909F908F907F906F905F909B
:100D20004F903F902F9008950F931F93FC010785DC
:100D3000108921893289041715072607370741F0E2
:100D40004787508B618B728B1F910F910C942205FA
:100D50001F910F9108954F925F926F927F928F92A1
:100D60009F92AF92BF92CF92DF92EF92FF92CF937A
:100D7000DF93EC016A017B018B8C9C8CAD8CBE8C6B
:100D80009A01AB01C501B4010E945213882309F4F2
:100D900049C06BA97CA98DA99EA90E94F1132B01C2
:100DA0003C01A7019601C501B4010E9456139B01A5
:100DB000AC01C301B2010E94A5140E94BE136BAB2B
:100DC0007CAB8DAB9EABA701960160E070E080E04C
:100DD00090E40E9456130E940C1526E53EE04DE279
:100DE0005FE30E94A51420E034E244E759E40E9446
:100DF000A5146FAB78AF89AF9AAFCB8EDC8EED8E3A
:100E0000FE8ECE01DF91CF91FF90EF90DF90CF90DB
:100E1000BF90AF909F908F907F906F905F904F901A
:100E20000C942205DF91CF91FF90EF90DF90CF904F
:100E3000BF90AF909F908F907F906F905F904F90FA
:100E400008958F929F92AF92BF92CF92EF920F939D
:100E5000CF93DF93EC0187E291E0998388836A83E3
:100E60001B861C861D861E861F86188A198A1A8A6A
:100E70001B8A1C8A1D8A1E8A812C912C80E8A82E30
:100E80008FE3B82E8F8A988EA98EBA8E1B8E1C8EF9
:100E90001D8E1E8E8F8E98A2A9A2BAA21BA21CA282
:100EA0001DA21EA281E090E09CA78BA78FEF8EA7CA
:100EB0001FA218A619A61AA64B832C830D83EE82B7
:100EC0001BAA1CAA1DAA1EAA1FAA18AE19AE1AAEEA
:100ED0001BAE1CAE1DAE1EAEFE01FF96808291823F
:100EE000A282B382349610821F82188619861A86CF
:100EF000CC2019F0CE010E945C0440E050E060E894
:100F00007FE3CE01DF91CF910F91EF90CF90BF9013
:100F1000AF909F908F900C94AB06CF92DF92EF92A0
:100F2000FF920F931F93CF93DF93EC016A017B0134
:100F30009A01AB016F89788D898D9A8D0E94521329
:100F4000882309F446C0CF8AD88EE98EFA8E8E01A6
:100F5000015C1F4FA701960160E074E284E799E409
:100F60000E945613F80160837183828393838BA957
:100F70009CA9ADA9BEA9181619061A061B064CF5A0
:100F80006B897C898D899E899B01AC010E94A51487
:100F90006B017C016B8D7C8D8D8D9E8D9B01AC01D9
:100FA0000E94EE129B01AC01C701B6010E945613CC
:100FB0000E94BE136BAB7CAB8DAB9EABCE01DF91C1
:100FC000CF911F910F91FF90EF90DF90CF900C94F5
:100FD0002205DF91CF911F910F91FF90EF90DF904D
:100FE000CF900895FC016789708D818D928D089551
:100FF0006F927F928F929F92AF92BF92CF92DF9229
:10100000EF92FF920F931F93CF93DF93EC013A017E
:101010008B012B893C894D895E89B301C8010E94EF
:101020005213882309F454C0CF88D88CE98CFA8CE9
:1010300046015701B7FAB094B7F8B094A5019401EE
:10104000B301C8010E94521387FD0BC0A70196018E
:10105000B301C8010E94A11418162CF436018701AF
:1010600002C03401850120E030E0A901B301C801CC
:101070000E945213811105C01BA21CA21DA21EA218
:1010800021C09301A80160E074E284E799E40E9422
:1010900056139F770E94C3136BA37CA38DA39EA3BB
:1010A0007E0183E4E80EF11CDD24D39420E030E0DF
:1010B000A901B301C8010E94A11418160CF0D12C8B
:1010C000F701D082C301D8018B8B9C8BAD8BBE8B7B
:1010D000DF91CF911F910F91FF90EF90DF90CF9014
:1010E000BF90AF909F908F907F906F900895FC017C
:1010F000148A0895FC0184898A3010F080E00895F4
:1011000091E0980F948BE80FF11DE80FF11D7183AA
:10111000608308952F923F924F925F926F927F92D9
:101120008F929F92AF92BF92CF92DF92EF92FF92F7
:101130000F931F93CF93DF93CDB7DEB727970FB6EB
:10114000F894DEBF0FBECDBF8C015B01912C1982DC
:10115000212C312C812CF8018489981608F050C07C
:10116000F50124E0929EE00DF11D11244080518094
:10117000628073809801290D311D290D311DF901FF
:10118000808191812C833D830E940A056B017C0143
:101190002C813D81F901808191810E94F2079B01A0
:1011A000AC01C301B2016C197D098E099F0997FF3B
:1011B00007C090958095709561957F4F8F4F9F4F99
:1011C0002C833D834A835B830E94F1132C813D81F4
:1011D0004A815B810E9456137B016C012981322D6B
:1011E000432D582D0E94A114181624F0E980F22CEA
:1011F000C32CD82C9394E9822F2C3C2C8D2CABCF74
:1012000020E030E0A9016981722D832D982D0E9484
:10121000A11418160CF043C0D12CF8018489D816FB
:10122000F0F57501F4E0DF9EE00CF11C1124F701EC
:10123000408051806280738098012D0D311D2D0DED
:10124000311D3F832E83F901808191810E940A051F
:10125000A3019201261B370B480B590BCA01B90198
:101260000E94F1132981322D432D582D0E945613CF
:101270002B013C01F7014081518162817381EE8134
:10128000FF81808191810E949406B301A201EE81C9
:10129000FF81808191810E94F807D394BECF279669
:1012A0000FB6F894DEBF0FBECDBFDF91CF911F9177
:1012B0000F91FF90EF90DF90CF90BF90AF909F90F5
:1012C0008F907F906F905F904F903F902F900895F8
:1012D000EF92FF920F931F93CF93DF938C01E12C3A
:1012E000F12CF8018489F816A8F4E801CF0DD11D7E
:1012F000CF0DD11D888199810E94F804672B682B3E
:10130000692B31F0888199810E948F04EE24E39447
:10131000F394E7CF8E2DDF91CF911F910F91FF9026
:10132000EF900895CF93DF93EC01CE010E946809FE
:101330008111FBCFDF91CF910895CF92DF92EF9291
:10134000FF920F931F93CF93DF937B016A01EC0110
:10135000CC5BDF4F288139812F5F3F4F3983288352
:10136000B901660F771F660F771F8C010A5B1F4F4D
:10137000F801808191810E94CD16F80191838083CC
:10138000E881F981E150F04CEE0FFF1FEE0FFF1FD7
:10139000E80FF91FF182E082D382C282DF91CF9100
:1013A0001F910F91FF90EF90DF90CF900895CF9312
:1013B000DF93AC01DC011196FD0101900020E9F7FB
:1013C0003197EA1BFB0B20E030E081E090E0AE5B60
:1013D000BF4F2E173F0759F0EA01C20FD31F798183
:1013E0006C91761301C001962F5F3F4FF2CFDF91D2
:1013F000CF9108956F927F928F929F92AF92BF92FA
:10140000CF92DF92EF92FF920F931F93CF93DF93D0
:10141000EC010E94D7095C01880F991F0E94A61554
:101420008C01CE010196D8018D939C93019620E00A
:1014300030E0DE01AD5BBF4FFC014291442379F007
:101440005C9145130AC010822F5F3F4FF901EE0FE8
:10145000FF1FE00FF11F918380830196EDCFFE0106
:10146000EC5BFF4F80809180C12CD12CE12CF12CC2
:10147000CA5BDF4FE814F904F1F0688079806C0CE6
:101480007D1CF80160817181D3018D919C910E9436
:10149000C717B4E0CB0ED11C892B49F4D3011296A7
:1014A000ED91FC911397B501C801099504C0BFEFF8
:1014B000EB1AFB0ADFCFC801DF91CF911F910F918B
:1014C000FF90EF90DF90CF90BF90AF909F908F9064
:1014D0007F906F900C943E16CF93DF93EC01DC016C
:1014E0001196FD0101900020E9F73197EA1BFB0BF3
:1014F000A05CBF4F8C91681304C081E0888319827F
:1015000013C0DE01AE5BBF4F8C91681306C0CE01E5
:101510000E94FA091982188207C08881882321F065
:10152000CE0FDF1F69831A82DF91CF9108951F923A
:101530000F920FB60F9211242F933F938F939F9387
:10154000AF93BF938091BC029091BD02A091BE0267
:10155000B091BF023091BB0223E0230F2D3720F45E
:101560000196A11DB11D05C026E8230F0296A11DFD
:10157000B11D2093BB028093BC029093BD02A09347
:10158000BE02B093BF028091C0029091C102A091AF
:10159000C202B091C3020196A11DB11D8093C00289
:1015A0009093C102A093C202B093C302BF91AF91C6
:1015B0009F918F913F912F910F900FBE0F901F9091
:1015C00018953FB7F8948091C0029091C102A09104
:1015D000C202B091C30226B5A89B05C02F3F19F0E7
:1015E0000196A11DB11D3FBF6627782F892F9A2F25
:1015F000620F711D811D911D42E0660F771F881FCC
:10160000991F4A95D1F708958F929F92AF92BF92FA
:10161000CF92DF92EF92FF926B017C010E94E10A70
:101620004B015C01C114D104E104F104F1F00E940A
:1016300051120E94E10A681979098A099B09683EDA
:1016400073408105910570F321E0C21AD108E108C9
:10165000F10888EE880E83E0981EA11CB11CC1140D
:10166000D104E104F10429F7DDCFFF90EF90DF9082
:10167000CF90BF90AF909F908F900895823091054A
:1016800038F0880F991F880F991F05970197F1F778
:101690000895789484B5826084BD84B5816084BDEA
:1016A00085B5826085BD85B5816085BDEEE6F0E0DB
:1016B000808181608083E1E8F0E010828081826037
:1016C0008083808181608083E0E8F0E080818160B8
:1016D0008083E1E9F0E080818260808380818160A5
:1016E0008083E0E9F0E0808181608083E1ECF0E0DC
:1016F000808184608083808182608083808181603A
:101700008083E3ECF0E0808181608083E0ECF0E0B6
:10171000808182608083E2ECF0E080818160808360
:10172000EAE7F0E08081846080838081826080834A
:10173000808181608083808180688083089590E0CB
:10174000FC013197EF30F105B0F5EA59FF4F0C94E9
:101750007E15809180008F7703C0809180008F7DFF
:1017600080938000089580918000877FF9CF84B5B1
:101770008F7702C084B58F7D84BD089580919000DD
:101780008F7707C0809190008F7D03C0809190007B
:10179000877F8093900008958091C0008F7703C069
:1017A0008091C0008F7D8093C00008958091C20019
:1017B000877F8093C2000895CF93DF9390E0FC0170
:1017C000E75FFE4F2491FC01E85DFE4F8491882382
:1017D00049F190E0880F991FFC01EB5AFE4FA5914B
:1017E000B491895B9E4FFC01C591D4919FB7611163
:1017F00008C0F8948C91209582238C938881822351
:101800000AC0623051F4F8948C91322F30958323C2
:101810008C938881822B888304C0F8948C91822BCE
:101820008C939FBFDF91CF9108950F931F93CF9318
:10183000DF931F92CDB7DEB7282F30E0F901E651D4
:10184000FF4F8491F901E75FFE4F1491F901E85DC4
:10185000FE4F04910023C9F0882321F069830E9480
:101860009F0B6981E02FF0E0EE0FFF1FE95BFE4F59
:10187000A591B4919FB7F8948C91611103C0109514
:10188000812301C0812B8C939FBF0F90DF91CF915B
:101890001F910F910895CF93DF931F92CDB7DEB7BD
:1018A0006983DC01ED91FC910280F381E02D41E040
:1018B00050E0BE016F5F7F4F09950F90DF91CF9190
:1018C0000895CF93DF93EC018C859D8597FF05C02C
:1018D00082E00E94700E9D878C878C859D85DF91AC
:1018E000CF91089583E00C940411FC0184859585C3
:1018F00097FD06C082E00E94180E90E001960895C0
:1019000082E00E94180E90E00895FC018485958580
:1019100097FD05C02FEF3FEF35872487089582E0BC
:101920000C94700ECF93DF93EC018091110188230A
:1019300031F083E00E94A10E1816190634F081E000
:1019400090E09B838A8380E090E0DF91CF910895BF
:10195000FC0120812E5F208342E450E063E671E0C9
:1019600080E80C943C0FFC0121818081813A59F47C
:10197000213209F04BC047E050E06AE071E080E0BE
:101980000E943C0F5EC0813209F040C0233289F4CE
:10199000838190E0982F88273281832BA0E0B0E0EC
:1019A0008093060190930701A0930801B093090169
:1019B0000FC0203239F467E070E08AE091E00E94C5
:1019C0006D0F09C0223221F482818093110103C07E
:1019D0002D7F2032B1F580911403811103C0E0E026
:1019E000F8E002C0EEEFFAE080910A0190910B015D
:1019F000A0910C01B0910D01803B9440A105B1056F
:101A000011F58091110180FF03C01DC080E0089591
:101A1000EE3F2AE0F20731F0808191819093FF0A36
:101A20008093FE0A87E797E7918380832BE088E124
:101A300090E00FB6F894A895809360000FBE2093B5
:101A4000600081E0089588E10FB6F894809360000B
:101A5000109260000FBEA895EE3F8AE0F80739F0BB
:101A60008091FE0A9091FF0A91838083EACF1092C1
:101A7000FF0A1092FE0AE5CF2FEF3FEFFC013587FA
:101A8000248708951092C7021092C60288EE93E050
:101A9000A0E0B0E08093C8029093C902A093CA026C
:101AA000B093CB0281E491E09093C5028093C4028D
:101AB0008FEF9FEF9093D1028093D00208956150F1
:101AC00030F02091F100FC0120830196F8CF289896
:101AD00084E680931E0308954091190350911A03E0
:101AE000209117033091180342175307B4F49091D3
:101AF000E8009570E1F39091E80092FD19C08093A1
:101B0000F1008091190390911A0301968F73992720
:101B1000892B19F48EEF8093E8008091190390913E
:101B20001A03019690931A038093190381E0089594
:101B300080E00895CF92DF92EF92FF920F931F9370
:101B4000CF93DF931F92CDB7DEB7082F162FF42E59
:101B5000862F880F8E5F99830E946C0D83E00E9410
:101B60006C0DE02EC02E9981D92E8C2D8E198117E7
:101B700098F4F601F7FE02C0849101C080810E94B2
:101B80006C0D082F80E00E946C0D8023FFEFCF1AB0
:101B9000DF0A8111EACF01C081E00F90DF91CF9180
:101BA0001F910F91FF90EF90DF90CF90089580915B
:101BB000D70081608093D70080EA8093D80089B5F0
:101BC000806189BD89B5826089BD09B400FEFDCF01
:101BD00061E070E080E090E00E94040B8091D8000A
:101BE0008F7C80618093D8008091E000807F80931B
:101BF000E0000895CF93DF931F92CDB7DEB719822F
:101C0000CE0101960E94A80C0E94D912BE016F5FFE
:101C10007F4F0E94521289810F90DF91CF910895DA
:101C20002FB7FC012083F89467706093E900089552
:101C3000CF93DF931F92CDB7DEB7682FCE01019609
:101C40000E94100E8091F20099819FBF0F90DF914A
:101C5000CF910895FF920F931F93CF93DF9300D0FE
:101C6000CDB7DEB7F62E8A0190911D03992311F0AE
:101C700057FF03C08FEF9FEF2BC0682FCE01019657
:101C80007A830E94100E8091F20090E0A8017A8180
:101C9000801791070CF4AC01EF2DF72FF40E84E6BA
:101CA000FE1639F0289880931E039091F1009193CD
:101CB000F7CF4115510521F08091F200882321F0E2
:101CC00089818FBFCA0104C08BE68093E800F8CFFA
:101CD0000F900F90DF91CF911F910F91FF9008957A
:101CE000CF93DF931F92CDB7DEB741E050E0BE0146
:101CF0006F5F7F4F0E942A0E019719F4898190E04F
:101D000002C08FEF9FEF0F90DF91CF910895CF9397
:101D1000DF931F92CDB7DEB7682FCE0101960E94E8
:101D2000100E9091E800892F807295FF04C0909169
:101D3000F20080E4891B99819FBF0F90DF91CF91C2
:101D400008956F927F928F929F92AF92BF92CF929F
:101D5000DF92EF92FF920F931F93CF93DF931F9227
:101D6000CDB7DEB7782E7B01C42EB52E80911D0332
:101D7000882369F0042F152F8AEFD82E872D8072C3
:101D8000982E9AE3A92E872D8074882E11C08FEF8C
:101D90009FEF57C0872D0E94870E682E81110CC0BF
:101DA000DA94A9F361E070E080E090E00E94040B17
:101DB0000115110579F73BC0282F30E002171307F2
:101DC0000CF4602E672DCE0101960E94100E8091BA
:101DD000E80085FF29C0262D30E0021B130B992057
:101DE00039F06A948FEF6816B1F01092F100F9CFD4
:101DF000F701862D77FE07C0815058F0949190939B
:101E0000F1003196F9CF815020F091919093F1003B
:101E1000FACFE20EF31E8091E80085FF0FC0011596
:101E2000110511F481100AC089818FBFC1CF5D985F
:101E300084E680931F038C2D9B2D03C0A092E800A5
:101E4000F3CF0F90DF91CF911F910F91FF90EF9003
:101E5000DF90CF90BF90AF909F908F907F906F90CA
:101E600008951092E90010921A03109219039093AA
:101E70001803809317030895CF92DF92FF920F9378
:101E80001F93CF93DF9300D0CDB7DEB7F82E8A0132
:101E90006B0101151105B1F0F601F7FE02C0849146
:101EA00001C0808149835A830E946C0D0150110941
:101EB000FFEFCF1ADF0A49815A818111EACF8FEFF4
:101EC0009FEF01C0CA010F900F90DF91CF911F913A
:101ED0000F91FF90DF90CF900895BF92CF92DF9245
:101EE000EF92FF920F931F93CF93DF936C018B01BF
:101EF000EB013BEFB32E2097C1F07E01C134D10539
:101F00001CF020E4E22EF12C8091E80082FFFCCF4F
:101F1000C8018C1B9D0B6E2D8C0D9D1D0E945F0DAD
:101F2000B092E800CE19DF09E6CFC801DF91CF916A
:101F30001F910F91FF90EF90DF90CF90BF90089589
:101F40001F920F920FB60F921124DF92EF92FF9221
:101F50000F931F932F933F934F935F936F937F93B1
:101F60008F939F93AF93BF93EF93FF93CF93DF93A1
:101F7000CDB7DEB76C97DEBFCDBF1092E900809180
:101F8000E80083FF23C168E0CE0145960E945F0D03
:101F900082EF8093E8003D8937FF05C08091E8001B
:101FA00080FFFCCF03C08EEF8093E800832F807604
:101FB00009F0F0C02E894F89D88C21110CC030381F
:101FC00029F480911C038093F10002C01092F1006B
:101FD0001092F100F4C0842F90E09D29213049F443
:101FE0003111EDC0019709F0EAC080911C038D7F8B
:101FF0000AC0233059F43111E2C0019709F0DFC063
:1020000080911C03826080931C03D9C0253041F469
:102010008091E80080FFFCCF40684093E300CFC090
:10202000263009F08DC0EB8CFC8C22E0D2122CC043
:1020300080E090E00E94310F0E94FA0D99E08E013D
:102040000F5F1F4FF801292F11922A95E9F7998305
:10205000DA8291E09E8390EA98879AEF998720919F
:10206000190330911A03275F3F4F3C832B838D83E5
:10207000C7010E94310F49E050E0B80180E00E94A2
:102080003C0F0E94FA0D9BC0C7010E94310F0E94B5
:10209000D912BE016B5E7F4F0E947B12009719F030
:1020A0000CF08DC090C081E0D8120EC08B8D9C8D3D
:1020B000089719F481E0809316038091160381112B
:1020C0002FC067EB71E031C0E3E0DE127CC08F8986
:1020D000882349F1823029F440E860E185ED91E000
:1020E0001CC0813029F440E86BE089EC91E015C018
:1020F000833009F068C00E94D9128E010F5F1F4F14
:10210000B8010E949A12F80101900020E9F7319776
:10211000E01BF10B40E06E2FC8010E949A0D4DC0EC
:1021200065EA71E002C066EE71E06115710509F4BF
:102130004AC0FB01449150E080E80E943C0F3FC040
:10214000273009F440C0283021F481E08093F10069
:1021500036C02930A1F53370B1F5E3E1F1E081E05B
:1021600021E036E39081992361F08093E900209388
:10217000EB0091919093EC003093ED008F5F8730EE
:1021800089F78EE78093EA001092EA008F898093A6
:102190001D0315C08B8D9C8D0E94310F898D81117F
:1021A00005C0CE0145960E94B30C07C00E94D9120B
:1021B000BE016B5E7F4F0E94B912882321F08EEF23
:1021C0008093E80003C081E28093EB006C960FB629
:1021D000F894DEBF0FBECDBFDF91CF91FF91EF919D
:1021E000BF91AF919F918F917F916F915F914F912F
:1021F0003F912F911F910F91FF90EF90DF900F90E3
:102200000FBE0F901F9018958093E9008091F20007
:10221000882319F08AE38093E80008951F920F92B3
:102220000FB60F9211242F933F934F935F936F93A9
:102230007F938F939F93AF93BF93CF93EF93FF932E
:10224000C091E1008091E100837F8093E100809361
:10225000E100C3FF0FC01092E90081E08093EB0022
:102260001092EC0082E38093ED0010921D0388E051
:102270008093F000C2FF19C083E00E940411809196
:102280001F03882339F080911F03815080931F031F
:10229000882389F180911E03882339F080911E03E1
:1022A000815080931E03882341F1C4FF10C08091A8
:1022B000E2008E7E81608093E2008091E1008F7E5B
:1022C0008093E10080911B038E7E806111C0C0FF6E
:1022D00016C08091E2008E7E80618093E200809142
:1022E000E1008E7E8093E10080911B038E7E8160F1
:1022F00080931B0304C05D9ACDCF289AD6CFFF915F
:10230000EF91CF91BF91AF919F918F917F916F91FD
:102310005F914F913F912F910F900FBE0F901F90A3
:10232000189510921D0310921C0310921B030E941B
:10233000D70D8091E1008E7E8093E1008DE0809347
:10234000E200559A209AEEEFFFE7859194918B3F3A
:102350009C4D19F481E0809314030895FC01808161
:1023600091810C943E16CF93DF93EC018881998183
:10237000009711F00E943E16198218821D821C825D
:102380001B821A82DF91CF9108950F931F93CF93F1
:10239000DF93EC018B016F5F7F4F888199810E94F1
:1023A000CD16009731F0998388831B830A8381E0DF
:1023B00001C080E0DF91CF911F910F910895CF93DD
:1023C000DF93EC0188819981892B29F08A819B8197
:1023D0008617970760F4CE010E94C511882341F04B
:1023E0008C819D81892B19F4E881F981108281E02B
:1023F000DF91CF910895EF92FF920F931F93CF93A8
:10240000DF93EC017B018A01BA010E94DF11811187
:1024100004C0CE010E94B31107C01D830C83B70115
:10242000888199810E94D017CE01DF91CF911F91B1
:102430000F91FF90EF900895FC011182108213829A
:102440001282158214826115710559F0FB01019009
:102450000020E9F7AF0141505109461B570B0C947E
:10246000FB110895FC0180819181009711F00C947B
:10247000971760E070E0CB01089508950E94490B22
:102480000E943D1285E193E00E9491110E94220179
:10249000C0E0D0E00E9459022097E1F30E940000C2
:1024A000F9CF0895EF92FF920F931F93CF93DF938D
:1024B0007B01FC01C281D38100E010E0209781F014
:1024C000E881F9810280F381E02DB701CE01099501
:1024D00097FD08C0080F191F0884D985C02DEECFBD
:1024E000C80102C08FEF9FEFDF91CF911F910F9135
:1024F000FF90EF9008950F931F93CF93DF938B017D
:10250000FC01C281D381209771F0E881F9810480B8
:10251000F581E02DB801CE010995009731F40884CA
:10252000D985C02DF0CF80E090E0DF91CF911F9151
:102530000F9108950F931F93CF93DF938B01FC01AD
:10254000C281D381209771F0E881F9810680F781FB
:10255000E02DB801CE010995080F111D0884D98519
:10256000C02DF0CFF8011082DF91CF911F910F9114
:1025700008950F931F93CF93DF938B01FC01C281CA
:10258000D381209771F0E881F9810190F081E02DED
:10259000B801CE010995811106C00884D985C02DE6
:1025A000F0CF80E001C081E0DF91CF911F910F91CA
:1025B00008958091240381110DC082E0809320034F
:1025C00084E080932103109223031092220381E080
:1025D0008093240380E293E008955058BB27AA27F4
:1025E0000ED075C166D130F06BD120F031F49F3F31
:1025F00011F41EF45BC10EF4E095E7FB51C1E92F25
:1026000077D180F3BA17620773078407950718F02C
:1026100071F49EF58FC10EF4E0950B2EBA2FA02D0C
:102620000B01B90190010C01CA01A0011124FF277F
:10263000591B99F0593F50F4503E68F11A16F0407A
:10264000A22F232F342F4427585FF3CF4695379579
:102650002795A795F0405395C9F77EF41F16BA0B3E
:10266000620B730B840BBAF09150A1F0FF0FBB1FEC
:10267000661F771F881FC2F70EC0BA0F621F731F35
:10268000841F48F4879577956795B795F7959E3F92
:1026900008F0B3CF9395880F08F09927EE0F979520
:1026A00087950895D9D008F481E008950CD00FC122
:1026B00007D140F0FED030F021F45F3F19F0F0C0B8
:1026C000511139C1F3C014D198F39923C9F355239B
:1026D000B1F3951B550BBB27AA2762177307840715
:1026E00038F09F5F5F4F220F331F441FAA1FA9F3CB
:1026F00033D00E2E3AF0E0E830D091505040E695BD
:10270000001CCAF729D0FE2F27D0660F771F881F1D
:10271000BB1F261737074807AB07B0E809F0BB0B0C
:10272000802DBF01FF2793585F4F2AF09E3F510530
:1027300068F0B6C000C15F3FECF3983EDCF38695CD
:1027400077956795B795F7959F5FC9F7880F911DA6
:102750009695879597F90895E1E0660F771F881F92
:10276000BB1F621773078407BA0720F0621B730B45
:10277000840BBA0BEE1F88F7E095089504D0689497
:10278000B111D9C00895BCD088F09F5790F0B92FEF
:102790009927B751A0F0D1F0660F771F881F991FB6
:1027A0001AF0BA95C9F712C0B13081F0C3D0B1E0C8
:1027B0000895C0C0672F782F8827B85F39F0B93FD8
:1027C000CCF3869577956795B395D9F73EF49095B8
:1027D0008095709561957F4F8F4F9F4F0895E89436
:1027E00009C097FB3EF490958095709561957F4F59
:1027F0008F4F9F4F9923A9F0F92F96E9BB27939507
:10280000F695879577956795B795F111F8CFFAF416
:10281000BB0F11F460FF1BC06F5F7F4F8F4F9F4F47
:1028200016C0882311F096E911C0772321F09EE8A5
:10283000872F762F05C0662371F096E8862F70E00B
:1028400060E02AF09A95660F771F881FDAF7880FE5
:102850009695879597F90895990F0008550FAA0B3B
:10286000E0E8FEEF16161706E807F907C0F01216A3
:102870001306E407F50798F0621B730B840B950BA6
:1028800039F40A2661F0232B242B252B21F40895FB
:102890000A2609F4A140A6958FEF811D811D089598
:1028A00097F99F6780E870E060E008959FEF80EC03
:1028B000089500240A9416161706180609060895A6
:1028C00000240A9412161306140605060895092E0C
:1028D0000394000C11F4882352F0BB0F40F4BF2B7B
:1028E00011F460FF04C06F5F7F4F8F4F9F4F0895BB
:1028F00057FD9058440F551F59F05F3F71F04795B1
:10290000880F97FB991F61F09F3F79F08795089595
:10291000121613061406551FF2CF4695F1DF08C0B4
:10292000161617061806991FF1CF869571056105D1
:1029300008940895E894BB2766277727CB0197F979
:1029400008958ADF08F48FEF08950BD0C0CFB1DF70
:1029500028F0B6DF18F0952309F0A2CFA7CF1124F5
:10296000EACFC6DFA0F3959FD1F3950F50E0551F36
:10297000629FF001729FBB27F00DB11D639FAA27D4
:10298000F00DB11DAA1F649F6627B00DA11D661F23
:10299000829F2227B00DA11D621F739FB00DA11D44
:1029A000621F839FA00D611D221F749F3327A00DFE
:1029B000611D231F849F600D211D822F762F6A2F9A
:1029C00011249F5750408AF0E1F088234AF0EE0F1F
:1029D000FF1FBB1F661F771F881F91505040A9F72C
:1029E0009E3F510570F05CCFA6CF5F3FECF3983E61
:1029F000DCF3869577956795B795F795E7959F5F93
:102A0000C1F7FE2B880F911D9695879597F908952C
:102A100011F40EF44BCF3EC073DFD0F39923D9F3FA
:102A2000CEF39F57550B87FF43D00024A0E640EA22
:102A3000900180585695979528F4805C660F771F13
:102A4000881F20F026173707480730F4621B730BE6
:102A5000840B202931294A2BA69517940794202509
:102A600031254A2758F7660F771F881F20F0261751
:102A70003707480730F4620B730B840B200D311DB0
:102A8000411DA09581F7B901842F9158880F969523
:102A9000879508959F3F31F0915020F48795779561
:102AA0006795B795880F911D9695879597F9089525
:102AB00091505040660F771F881FD2F70895052E5A
:102AC00097FB1EF400940E94761557FD07D00E94D4
:102AD000841507FC03D04EF40C9476155095409560
:102AE000309521953F4F4F4F5F4F089590958095BA
:102AF000709561957F4F8F4F9F4F0895EE0FFF1F89
:102B00000590F491E02D0994A1E21A2EAA1BBB1B9B
:102B1000FD010DC0AA1FBB1FEE1FFF1FA217B307A9
:102B2000E407F50720F0A21BB30BE40BF50B661FBF
:102B3000771F881F991F1A9469F760957095809583
:102B400090959B01AC01BD01CF010895CF93DF9318
:102B50008230910510F482E090E0E0912E03F09134
:102B60002F0320E030E0A0E0B0E0309739F1408161
:102B7000518148175907B8F04817590771F48281F5
:102B80009381109729F013969C938E9312972CC0E3
:102B900090932F0380932E0327C02115310531F028
:102BA0004217530718F0A901DB0101C0EF019A0198
:102BB000BD01DF010280F381E02DD7CF2115310562
:102BC000F9F0281B390B2430310580F48A819B8170
:102BD0006115710521F0FB019383828304C09093FA
:102BE0002F0380932E03FE01329644C0FE01E20FB4
:102BF000F31F8193919322503109398328833AC07E
:102C000020912C0330912D03232B41F420910201BC
:102C10003091030130932D0320932C032091000168
:102C2000309101012115310541F42DB73EB7409196
:102C3000040150910501241B350BE0912C03F09108
:102C40002D03E217F307A0F42E1B3F0B28173907BB
:102C500078F0AC014E5F5F4F2417350748F04E0FF8
:102C60005F1F50932D0340932C038193919302C0D7
:102C7000E0E0F0E0CF01DF91CF910895CF93DF93B3
:102C8000009709F487C0FC01329713821282C09129
:102C90002E03D0912F03209781F420813181280FBA
:102CA000391F80912C0390912D038217930779F59A
:102CB000F0932D03E0932C036DC0DE0120E030E0A3
:102CC000AE17BF0750F412964D915C9113979D017A
:102CD0004115510509F1DA01F3CFB383A283408195
:102CE0005181840F951F8A179B0771F48D919C91D8
:102CF0001197840F951F02969183808312968D9170
:102D00009C911397938382832115310529F4F093C5
:102D10002F03E0932E033EC0D9011396FC93EE934C
:102D200012974D915D91A40FB51FEA17FB0779F437
:102D300080819181840F951F0296D90111969C93F1
:102D40008E938281938113969C938E931297E0E0E9
:102D5000F0E08A819B81009719F0FE01EC01F9CF28
:102D6000CE01029628813981820F931F20912C0376
:102D700030912D032817390769F4309729F4109200
:102D80002F0310922E0302C013821282D0932D03C0
:102D9000C0932C03DF91CF910895A0E0B0E0E3ED64
:102DA000F6E10C94F017EC01CB01209719F40E9486
:102DB000A615B8C0FE01E60FF71F9E01225031098B
:102DC000E217F30708F4ACC0D9010D911C911197DB
:102DD00006171707B8F00530110508F49FC0A801C1
:102DE000445051094617570708F498C0025011097A
:102DF000061B170B019311936D937C93CF010E94D7
:102E00003E168CC05B01A01AB10A4E01800E911EC5
:102E1000A0912E03B0912F03612C712C60E070E023
:102E2000109709F449C0A815B905C9F5ED90FC90B3
:102E30001197670142E0C40ED11CCA14DB0478F17B
:102E400047018A189B08640142E0C40ED11C129607
:102E5000BC9012971396AC91B5E0CB16D10440F01C
:102E6000B282A38391828082D9018D939C9309C001
:102E70000E5F1F4F0E0D1F1DF90111830083EB2DF7
:102E8000FA2F6115710531F0DB011396FC93EE9377
:102E9000129744C0F0932F03E0932E033FC06D912F
:102EA0007C9111976616770608F43B01BD011296D6
:102EB0000D90BC91A02DB4CF60912C0370912D0387
:102EC00068157905E9F468167906D0F44091000197
:102ED000509101014115510541F44DB75EB7609124
:102EE000040170910501461B570BE417F507C0F468
:102EF000F0932D03E0932C03F901918380830EC09E
:102F00000E94A6157C01009759F0A801BE010E94FD
:102F1000BE17CE010E943E16C70104C0CE0102C0FA
:102F200080E090E0CDB7DEB7EEE00C940C181F9374
:102F3000FC0199278827BC01E89411911032E9F32C
:102F4000193010F01E30C8F31B3251F01D3249F415
:102F5000689406C00E94D717610F711D811D911DD5
:102F6000119110531A30B0F33EF4909580957095FE
:102F700061957F4F8F4F9F4F1F910895FB01DC019B
:102F800002C001900D9241505040D8F70895FB01C6
:102F9000DC018D91019080190110D9F3990B0895EE
:102FA000FB01DC0101900D920020E1F70895592FFB
:102FB000482F372F262F660F771F881F991F660F00
:102FC000771F881F991F620F731F841F951F660F3D
:102FD000771F881F991F08952F923F924F925F92FB
:102FE0006F927F928F929F92AF92BF92CF92DF9219
:102FF000EF92FF920F931F93CF93DF93CDB7DEB77E
:10300000CA1BDB0B0FB6F894DEBF0FBECDBF099411
:103010002A88398848885F846E847D848C849B8468
:10302000AA84B984C884DF80EE80FD800C811B8176
:10303000AA81B981CE0FD11D0FB6F894DEBF0FBEA5
:10304000CDBFED01089511E0CEEED1E004C0FE0148
:103050000E9480152296C03FD107C9F7F894FFCF90
:10306000000030038000FFFFFFFF00E100000000D0
:10307000000000C180810000005A45524F004D4FB2
:103080005645000000000043045C0439036A02B79F
:10309000037D03CD03EE032204AE0204030000000F
:0E30A000004B0C920C750C850C610C720C0030
:00000001FF
