:100000000C94F7000C941F010C941F010C941F0119
:100010000C941F010C941F010C941F010C941F01E0
:100020000C941F010C941F010C94CC0B0C943E0CEF
:100030000C941F010C941F010C941F010C941F01C0
:100040000C941F010C941F010C941F010C941F01B0
:100050000C941F010C941F010C941F010C94A20519
:100060000C941F010C941F010C941F010C941F0190
:100070000C941F010C941F010C941F010C941F0180
:100080000C941F010C941F010C941F010C941F0170
:100090000C941F010C941F010C941F010C941F0160
:1000A0000C941F010C941F010C941F01B201B501A7
:1000B000A401A801AC01D601D601D601B901BD0148
:1000C000C101C701CB01D601D101410247024D0256
:1000D000530259025F026502DC03E303EA03F10302
:1000E000F8030F04FF030F040604000000020009D8
:1000F0000F0000030401000C0000000000000000DD
:10010000000000000000000000080B0002020201D5
:10011000000904000001020200000524001001058E
:1001200024010101042402060524060001070581BB
:100130000310004009040100020A00000007050244
:100140000240000007058302400000040309044147
:10015000726475696E6F204C4C430041726475691E
:100160006E6F204C656F6E6172646F001201000249
:10017000000000404123368000010102030112010A
:100180000002EF0201404123368000010102030119
:1001900000000000250028002B002E003100000088
:1001A0000000240027002A002D003000040404046D
:1001B000040304050202020204030202020206060C
:1001C00006060606040402020204040408020110E2
:1001D0004080401020408040800802040180402080
:1001E00010020110801020404020810E7B0E11244F
:1001F0001FBECFEFDAE0DEBFCDBF11E0A0E0B1E07F
:10020000EAE2FBE202C005900D92AE34B107D9F7E5
:1002100023E0AEE4B1E001C01D92AF32B207E1F7D6
:1002200010E0C6EFD0E004C02197FE010E949A10B2
:10023000C53FD107C9F70E94D40E0C9488150C94C1
:100240000000CF92DF92EF92FF920F931F93CF9314
:10025000DF936C017A018B01C0E0D0E0CE15DF05A1
:1002600089F0D8016D918D01D601ED91FC9101903D
:10027000F081E02DC6010995892B11F47E0102C0A1
:100280002196ECCFC701DF91CF911F910F91FF9085
:10029000EF90DF90CF900895CF93DF931F92CDB76B
:1002A000DEB76983DC01ED91FC910280F381E02DE2
:1002B00041E050E0BE016F5F7F4F09950F90DF91E5
:1002C000CF91089583E08093E9008091F200882324
:1002D00019F08AE38093E8000895FC0184859585F0
:1002E00097FD0BC09FB7F89482E08093E90080915E
:1002F000F2009FBF90E0019608959FB7F89482E0C6
:100300008093E9008091F2009FBF90E00895362F1E
:1003100090E0FC01E651FF4F4491FC01E553FE4F94
:100320002491FC01E455FE4F8491882309F451C0C7
:100330004423E1F150E0FA013197EF30F105B0F5D7
:10034000EA5AFF4F0C949A10909180009F7707C053
:10035000909180009F7D03C090918000977F909343
:10036000800024C094B59F7702C094B59F7D94BD52
:100370001DC0909190009F7707C0909190009F7D45
:1003800003C090919000977F909390000FC0909140
:10039000C0009F7703C09091C0009F7D9093C000E4
:1003A00005C09091C200977F9093C200E82FF0E0C3
:1003B000EE0FFF1FE057FE4FA591B4918FB7F89451
:1003C000EC91311103C020952E2301C02E2B2C93CC
:1003D0008FBF08953FB7F8948091530190915401D5
:1003E000A0915501B091560126B5A89B05C02F3F9D
:1003F00019F00196A11DB11D3FBFBA2FA92F982F4B
:100400008827820F911DA11DB11DBC01CD0142E0C5
:10041000660F771F881F991F4A95D1F70895CF93CC
:10042000DF93FC012281222389F0EC010190F0810D
:10043000E02D0480F581E02D60E009958EA58F3FC9
:1004400029F06DA5DF91CF910C948701DF91CF91B9
:100450000895CF93DF934770552766277727FA01D2
:100460003197EC01A881B981E730F10520F4EB590F
:10047000FF4F0C949A101496ED91FC91159761E042
:1004800029C01496ED91FC91159765E023C0149650
:10049000ED91FC91159764E01DC01496ED91FC91CF
:1004A000159766E017C01496ED91FC91159762E0E0
:1004B00011C01496ED91FC9115976AE00BC014964B
:1004C000ED91FC91159768E005C01496ED91FC91B3
:1004D000159769E0DF91CF910994CF93DF93EC01F9
:1004E000CB01BA0126E030E040E050E00E947B10F2
:1004F000623071058105910559F18CF46115710522
:1005000081059105F1F06130710581059105C1F515
:10051000E881F9810480F581E02D65E02DC064302B
:1005200071058105910511F1D4F0653071058105E2
:10053000910531F5E881F9810480F581E02D66E0CF
:100540001BC0E881F9810480F581E02D64E014C0CE
:10055000E881F9810480F581E02D61E00DC0E8813A
:10056000F9810480F581E02D63E006C0E881F9811E
:100570000480F581E02D62E0CE01DF91CF910994F6
:10058000DF91CF9108954370552766277727DC01C7
:10059000ED91FC910480F581E02D4230510561051B
:1005A000710571F0433051056105710559F0413015
:1005B00051056105710511F065E005C066E003C0F5
:1005C0006AE001C069E00994CF93DF93EC01CB01AD
:1005D000BA0123E030E040E050E00E947B1061303F
:1005E00071058105910581F06230710581059105E4
:1005F00091F0672B682B692BC1F4E881F9810480A5
:10060000F581E02D64E00DC0E881F9810480F58179
:10061000E02D61E006C0E881F9810480F581E02DDC
:1006200062E0CE01DF91CF910994DF91CF910895DF
:100630004370552766277727DC01ED91FC910480F4
:10064000F581E02D423051056105710571F04330AF
:1006500051056105710559F041305105610571057C
:1006600011F062E005C063E003C061E001C060E03A
:1006700009940F931F93CF93DF93EC01E881F981E5
:100680000480F581E02D8C010D5B1F4FD8018C910A
:10069000811102C060E001C062E0CE010995E881ED
:1006A000F9810480F581E02DD8018C91811102C07F
:1006B00061E001C063E0CE010995EBA5FCA5E23045
:1006C000F10538F0EE0FFF1FEE0FFF1F3597319742
:1006D000F1F7E881F9810480F581E02DD8018C9152
:1006E000811102C060E001C062E0CE01DF91CF91D4
:1006F0001F910F910994CF93DF93EC0120E030E03C
:10070000A9016B897C898D899E890E94D711181651
:100710001CF4EFA5F8A902C0E9A9FAA9DF91CF91CD
:100720000994CF92DF92EF92FF920F931F93CF9392
:10073000DF93FC012281243041F0283031F0233056
:1007400031F0263021F012E003C014E001C013E0C4
:10075000EC012796E12CF12CC62ED12C01E0C6012C
:100760000E2C02C0959587950A94E2F7688180FD6A
:100770006027FE01349780810E948701FFEFEF1A06
:10078000FF0A2196E11658F3DF91CF911F910F9147
:10079000FF90EF90DF90CF9008950F931F93DC01AF
:1007A0001296EC910E2F10E009301105C0F5F801FA
:1007B000E459FF4F0C949A10DC01ED91FC910084F8
:1007C000F185E02D29C0DC01ED91FC910284F385D7
:1007D000E02D22C0DC01ED91FC910484F585E02D33
:1007E0001BC0DC01ED91FC910684F785E02D14C05F
:1007F000DC01ED91FC910088F189E02D0DC0DC0158
:10080000ED91FC910288F389E02D06C0DC01ED91A9
:10081000FC910488F589E02D1F910F9109941F9197
:100820000F910895ECE8F2E013861486158616867B
:100830001786108A118A128A13AA14AA15AA16AA50
:1008400013A214A215A216A2E8E4F2E013861486FD
:10085000158616861786108A118A128A13AA14AA78
:1008600015AA16AA13A214A215A216A2E4E0F2E099
:1008700013861486158616861786108A118A128AA0
:1008800013AA14AA15AA16AA13A214A215A216A294
:10089000E0ECF1E013861486158616861786108A1A
:1008A000118A128A13AA14AA15AA16AA13A214A2AC
:1008B00015A216A268E58BE591E00C944C01CF934C
:1008C000DF931F92CDB7DEB7FC018485958597FD38
:1008D00005C02FEF3FEF358724870BC0CE0101966F
:1008E0000E94A20B019719F4898190E002C08FEF5A
:1008F0009FEF0F90DF91CF9108950F931F93CF93A8
:10090000DF931F92CDB7DEB78C01FC0184859585FE
:1009100097FF0EC0CE0101960E94A20B019719F419
:10092000298130E002C02FEF3FEFF801358724879F
:10093000F801848595850F90DF91CF911F910F91DC
:100940000895CF93DF93FC012281222329F1EC014A
:1009500083810E94830B8C810E94830B8A81843067
:1009600011F0883029F48D810E94830B8E8105C09F
:10097000833011F0863019F48D810E94830B8EA58F
:100980008F3F51F00E94830B6DA581E068278EA5F3
:10099000DF91CF910C948701DF91CF910895615041
:1009A00030F02091F100FC0120830196F8CF2898C7
:1009B00084E68093590108958F929F92AF92BF92DF
:1009C000CF92DF92EF92FF926B017C010E94EA01CD
:1009D0004B015C01C114D104E104F104F1F00E9467
:1009E000EA01DC01CB0188199909AA09BB09883EF3
:1009F0009340A105B10570F321E0C21AD108E108C6
:100A0000F10888EE880E83E0981EA11CB11CC11469
:100A1000D104E104F10419F7DDCFFF90EF90DF90EE
:100A2000CF90BF90AF909F908F9008958F929F929C
:100A3000AF92BF92CF92DF92EF92FF920F931F93EC
:100A4000CF93DF935C016B018A0180910B018823B6
:100A500009F45EC080915A01882309F459C080913D
:100A6000580180FF05C08091E00082608093E00023
:100A7000E8018AEFF82E93E0E92E2FE3822E3AE385
:100A8000932E209709F43DC08FB7F894E092E900C7
:100A90009091E80095FF06C09091F200282D291B47
:100AA000922F01C090E08FBF91110AC0FA94FF20ED
:100AB00079F161E070E080E090E00E94DC04E1CF39
:100AC000292F30E0C217D3070CF49C2F8FB7F8946E
:100AD000E092E9002091E80025FF11C0292F30E0C5
:100AE000C21BD30BF601915020F041914093F100CD
:100AF000FACFC20ED31E9091E80095FF13C08FBFAE
:100B0000C0CF5D9884E6809357011016110644F01B
:100B100081E090E0F5019383828380E090E005C05E
:100B2000C80103C09092E800EACFDF91CF911F91F6
:100B30000F91FF90EF90DF90CF90BF90AF909F907C
:100B40008F9008951F920F920FB60F9211242F933A
:100B50003F938F939F93AF93BF9380914F01909159
:100B60005001A0915101B091520130914E0123E00A
:100B7000230F2D3720F40196A11DB11D05C026E8D5
:100B8000230F0296A11DB11D20934E0180934F01AA
:100B900090935001A0935101B09352018091530161
:100BA00090915401A0915501B09156010196A11D5B
:100BB000B11D8093530190935401A0935501B093BC
:100BC0005601BF91AF919F918F913F912F910F90BF
:100BD0000FBE0F901F9018952F923F924F925F92E9
:100BE0006F927F928F929F92AF92BF92CF92DF923D
:100BF000EF92FF920F931F93CF93DF9300D000D01B
:100C0000CDB7DEB71C01FC0187849088A188B2882B
:100C100083859485A585B685881A990AAA0ABB0A90
:100C200063897489858996899B01AC010E9493141C
:100C30006B017C01F101638D748D858D968D9B0117
:100C4000AC010E94C3109B01AC01C701B6010E9418
:100C50002F110E94A11181149104A104B104A1F4E7
:100C600062307105810591050CF07CC0F10113A281
:100C700014A215A216A2138A148A158A168A13AA18
:100C800014AA15AA16AA03C1F10103A914A925A93A
:100C900036A9ED5BFF4F181419041A041B04FCF469
:100CA00010161106120613064CF4681579058A050C
:100CB0009B054CF52081211155C025C0011511055A
:100CC0002105310509F44EC0681579058A059B0593
:100CD0000CF048C08081882309F444C037C0101646
:100CE000110612061306F4F40027112798010819BB
:100CF00019092A093B0960177107820793071CF439
:100D00002081222379F19B01AC0188279927DC01FE
:100D1000821B930BA40BB50BF10183AB94ABA5AB7A
:100D2000B6AB20C00115110521053105D9F0CC2441
:100D3000DD247601C818D908EA08FB086C157D0582
:100D40008E059F057CF4808181110CC03095209523
:100D5000109501951F4F2F4F3F4FF10103AB14AB7F
:100D600025AB36ABF101C3A8D4A8E5A8F6A881014C
:100D70000D5B1F4FC114D104E104F10491F487A964
:100D800090ADA1ADB2AD83AF94AFA5AFB6AF81E0EA
:100D9000181419041A041B040CF080E0F801808375
:100DA00040C0F10183AC94ACA5ACB6ACA5019401F4
:100DB000C501B4010E94C3102B013C01C701B6015B
:100DC0000E94341420E030E040E850E40E94931484
:100DD00020E030E040E85FE30E94C3109B01AC01DB
:100DE000C301B2010E942F119B01AC01C501B401E6
:100DF0000E94C2104B015C01F101FF9640805180BE
:100E0000628073809201A3010E94D711181614F01A
:100E100042015301A401B501F10143AF54AF65AFE5
:100E200076AFFFEFCF1ADF0AEF0AFF0AF101C3AA7C
:100E3000D4AAE5AAF6AA23AD34AD45AD56ADCA0194
:100E4000B90129833A834B835C830E94A811F10185
:100E500063A374A385A396A329813A814B815C8106
:100E600060E074E284E799E40E942F11F101638B42
:100E7000748B858B968BF8012081211108C0DC01D1
:100E8000CB01B058F101838B948BA58BB68B0F905F
:100E90000F900F900F90DF91CF911F910F91FF90C6
:100EA000EF90DF90CF90BF90AF909F908F907F900A
:100EB0006F905F904F903F902F900895CF92DF9268
:100EC000EF92FF920F93CF93DF93EC0186E191E0D5
:100ED000998388836A831B861C861D861E861F86CF
:100EE000188A198A1A8A1B8A1C8A1D8A1E8A80E01F
:100EF00090E0A0E8BFE38F8B988FA98FBA8F1B8EED
:100F00001C8E1D8E1E8E8F8F98A3A9A3BAA31BA221
:100F10001CA21DA21EA261E070E07CA76BA73FEFA0
:100F20003EA71FA218A619A61AA64B832C830D83D1
:100F3000EE821BAA1CAA1DAA1EAA1FAA18AE19AED1
:100F40001AAE1BAE1CAE1DAE1EAEFE01FF96808318
:100F50009183A283B383349610821F8218861986E8
:100F60001A86CC2019F0CE010E94A104CB8CDC8C17
:100F7000ED8CFE8C20E030E040E85FE3C701B60175
:100F80000E942D14882351F16BA97CA98DA99EA9DB
:100F90000E943414A70196010E9493140E94A1118B
:100FA0006BAB7CAB8DAB9EAB86E896E6A9E6B9E46D
:100FB0008FAB98AFA9AFBAAF80E090E0A0E8BFE3F5
:100FC0008B8F9C8FAD8FBE8FCE01DF91CF910F9114
:100FD000FF90EF90DF90CF900C94EC05DF91CF91D4
:100FE0000F91FF90EF90DF90CF9008952F923F9256
:100FF0004F925F926F927F928F929F92AF92BF9229
:10100000CF92DF92EF92FF920F931F93CF93DF93D4
:10101000CDB7DEB765970FB6F894DEBF0FBECDBF74
:101020008C014B0161E08EE00E94870160E08FE05F
:101030000E9487019E012F5F3F4F590180E1D90136
:101040001D928A95E9F779010E5F1F4F1901CC2493
:10105000C394D12CC814D9047CF5F8014190519067
:101060008F014114510409F4D8C1F201019000200C
:10107000E9F7BF016419750980E090E00E94091347
:101080003C01009709F4C9C1DC011C92B2010E9425
:10109000EA13C3010E94F113362D272DF10161934C
:1010A0007193819391931F01832F922F0E9471124C
:1010B000FFEFCF1ADF0ACECFC090BF010BEA11E0DD
:1010C000D12C198A1A8A1B8A1C8ADC14C9F1F701EF
:1010D00081919191A191B1917F01F80181909190BD
:1010E0008F01F4014384548465847684BC01CD016E
:1010F000641975098609970997FF07C0909580952F
:10110000709561957F4F8F4F9F4F0E943414D4018B
:1011100057962D913D914D915C915A970E942F11B8
:101120003B014C0129893A894B895C890E94D7117E
:10113000181624F4698A7A8A8B8A9C8AD394C5CF3C
:1011400020E030E0A90169897A898B899C890E9415
:10115000D71118160CF0B5C0612C8091BF0168162C
:1011600008F0AFC0062D10E0F501B4E06B9EE00D75
:10117000F11D11242080318042805380000F111F07
:10118000F801E555FE4FE080F180F70183859485F5
:10119000A585B685A2019101281B390B4A0B5B0B73
:1011A000CA01B9010E94341429893A894B895C89A2
:1011B0000E942F116D8B772E4C01F7018785908946
:1011C000A189B28982159305A405B50539F0278652
:1011D000308A418A528AC7010E94EC05F801E55520
:1011E000FE4F00811181F801238934894589568990
:1011F0006D89772DC4010E942D14882309F45FC0E6
:10120000D8015796CD90DD90ED90FC905A9716013D
:10121000270157FA509457F85094A20191016D8913
:10122000772DC4010E942D1487FD0DC0A7019601E2
:101230006D89772DC4010E94D711181634F0CD881E
:10124000D72C740102C07201610120E030E0A901D5
:10125000C701B6010E942D14811106C0F80113A226
:1012600014A215A216A224C0A701960160E074E2A0
:1012700084E799E40E942F119F770E94A811D8015A
:1012800093966D937D938D939C9396974801B3E4C9
:101290008B0E911C7724739420E030E0A901C701E4
:1012A000B6010E94D71118160CF0712CF40170824F
:1012B000D8015396CD92DD92ED92FC9256976394AD
:1012C0004CCF80E0B12C9091BF01B91608F078C0E6
:1012D000EB2DF0E0EE0FFF1FE555FE4F0081118171
:1012E000F801C784D088E188F288438554856585F4
:1012F0007685C416D506E606F70609F45FC083A115
:1013000094A1A5A1B6A1892B8A2B8B2B09F455C0DA
:101310000E94EA016B017C01D80197964D915D9185
:101320006D917C919A9793968D919D910D90BC9122
:10133000A02D840F951FA61FB71F84179507A6071A
:10134000B70730F0C816D906EA06FB0658F405C000
:10135000C816D906EA06FB0680F1C416D506E606CD
:10136000F70658F5F801ED5BFF4F2081F801838502
:101370009485A585B685222321F00196A11DB11D76
:1013800004C00197A109B109F80183879487A58753
:10139000B687D801ED91FC9111971B964D915D9107
:1013A0006D917C911E970680F781E02DC80109950B
:1013B000F801C7A2D0A6E1A6F2A681E0B39483CF3C
:1013C00081117FCF68EE73E080E090E00E94DC0442
:1013D0006DE48BE591E00E944C0160E08EE00E949C
:1013E000870161E08FE065960FB6F894DEBF0FBE0F
:1013F000CDBFDF91CF911F910F91FF90EF90DF90C4
:10140000CF90BF90AF909F908F907F906F905F90A4
:101410004F903F902F900C94870130E020E060E0E7
:1014200070E0CB013BCE8091230381110DC082E09F
:1014300080931F0384E08093200310922203109274
:10144000210381E0809323038FE193E0089540918D
:101450001B0350911C032091190330911A0342176A
:101460005307B4F49091E8009570E1F39091E8008F
:1014700092FD19C08093F10080911B0390911C0391
:1014800001968F739927892B19F48EEF8093E800CA
:1014900080911B0390911C03019690931C038093F1
:1014A0001B0381E0089580E00895CF92DF92EF92D0
:1014B000FF920F931F93CF93DF931F92CDB7DEB7A9
:1014C000182F062FE42E862F880F8E5F99830E9497
:1014D000270A83E00E94270AF12EC12E9981D92E76
:1014E0008C2D8F19801798F4F601E7FE02C08491C5
:1014F00001C080810E94270A182F80E00E94270ADD
:101500008123FFEFCF1ADF0A8111EACF01C081E00A
:101510000F90DF91CF911F910F91FF90EF90DF908F
:10152000CF900895DF92EF92FF920F931F93CF9386
:10153000DF93D82E8A017B01E40EF51EEB01CE1558
:10154000DF0571F0D7FE03C0FE01849101C08881E0
:101550000E94270A21968111F2CF8FEF9FEF01C0E1
:10156000C801DF91CF911F910F91FF90EF90DF9015
:1015700008950F931F93CF93DF931F92CDB7DEB7DC
:1015800082E0898342E450E069E071E080E80E94F3
:10159000920A0E94130ADC0112960D911C91139776
:1015A0000115110569F0D801ED91FC910280F381DC
:1015B000E02DBE016F5F7F4FC801099597FF07C0FF
:1015C00089810F90DF91CF911F910F910895F801BC
:1015D00000851185E5CFCF92DF92EF92FF920F93B6
:1015E0001F93CF93DF938C01EB0184E1E82E83E01E
:1015F000F82EF701608171816F5F7F4F7183608387
:10160000660F771F660F771F26E1C22E23E0D22ECA
:10161000F601808191810E940913F60191838083F4
:10162000F70120813181F901E150F04CEE0FFF1FED
:10163000EE0FFF1FE80FF91F11830083D383C283CE
:10164000DF91CF911F910F91FF90EF90DF90CF909E
:101650000895CF92DF92EF92FF92CF93DF93EC0148
:1016600020E030E04AE754E46F89788D898D9A8DC7
:101670000E942D148823F1F180E090E0AAE7B4E401
:101680008F8B988FA98FBA8FFE01FF9680839183ED
:10169000A283B3838BA99CA9ADA9BEA9181619066C
:1016A0001A061B063CF56B897C898D899E899B01F6
:1016B000AC010E9493146B017C016B8D7C8D8D8D30
:1016C0009E8D9B01AC010E94C3109B01AC01C70120
:1016D000B6010E942F110E94A1116BAB7CAB8DABA8
:1016E0009EABCE01DF91CF91FF90EF90DF90CF9036
:1016F0000C94EC05DF91CF91FF90EF90DF90CF90AD
:1017000008950E94D31390E0FC01E553FE4F24910D
:10171000FC01E455FE4F8491882399F090E0880FF6
:10172000991FFC01E256FE4FA591B491FC01E057D0
:10173000FE4F859194918FB7F894EC91E22BEC9346
:101740008FBF0895FC0180915A01811103C08FEF72
:101750009FEF08959FB7F89482E08093E90020916D
:10176000F20030E01216130614F421E030E02115E7
:10177000310559F0289884E6809359018091F10051
:1017800080838091F200882319F09FBFC9010895DA
:101790008BE68093E800F9CF1F920F920FB60F925D
:1017A00011248F939F938091E1009091E100937FAA
:1017B0009093E10083FF0FC01092E90091E09093B5
:1017C000EB001092EC0092E39093ED0010925A011E
:1017D00098E09093F00082FF20C093E09093E9009E
:1017E0009091F200992319F09AE39093E800909178
:1017F0005701992339F090915701915090935701D7
:10180000992389F190915901992339F090915901C7
:10181000915090935901992341F184FF10C0809118
:10182000E2008E7E81608093E2008091E1008F7EF5
:101830008093E100809158018E7E806111C080FF0D
:1018400016C08091E2008E7E80618093E2008091DC
:10185000E1008E7E8093E100809158018E7E816050
:101860008093580104C05D9ACDCF289AD6CF9F911E
:101870008F910F900FBE0F901F9018951F920F928F
:101880000FB60F921124CF92DF92EF92FF920F9337
:101890001F932F933F934F935F936F937F938F93F8
:1018A0009F93AF93BF93EF93FF93CF93DF93CDB706
:1018B000DEB76C97DEBFCDBF1092E9008091E800E3
:1018C00083FFFAC168E0CE0145960E94CF0482EF03
:1018D0008093E8008D8987FF05C09091E80090FF14
:1018E000FCCF03C09EEF9093E800982F907609F00C
:1018F000C6C09E892F89188D91110CC0803829F49B
:1019000080911E038093F10002C01092F1001092AA
:10191000F10047C1422F50E0512B913051F4811119
:1019200040C14130510509F03CC180911E038D7FBB
:101930000BC0933061F4811134C14130510509F07D
:1019400030C180911E03826080931E032AC19530AE
:1019500041F48091E80080FFFCCF20682093E300F1
:1019600020C1963009F05FC0EB8CFC8C1092E9002E
:1019700010921C0310921B03123091F510921A035F
:10198000109219030E94B90A99E0BE016F5F7F4F60
:10199000DB01E92F1D92EA95E9F799831A8391E01B
:1019A0009E8390EA98879AEF998720911B03309144
:1019B0001C03275F3F4F3C832B838D831092E900EC
:1019C00010921C0310921B03F0921A03E092190369
:1019D00049E050E080E00E94920A0E94B90AE1C00A
:1019E000F0921A03E09219030E94130ADC01129686
:1019F000ED90FC901397E114F10409F4C0C0D701F5
:101A0000ED91FC910480F581E02DBE016B5E7F4F6E
:101A1000C7010995009719F00CF0C3C0C6C0F701C3
:101A2000E084F184E8CF973009F4BFC0983021F406
:101A300081E08093F100B5C0993009F0B2C08370A5
:101A400009F0B3C0EDE2F1E081E021E036E39081FE
:101A5000992361F08093E9002093EB00919190939A
:101A6000EC003093ED008F5F873089F78EE780932D
:101A7000EA001092EA008F8980935A0192C08B8D00
:101A80009C8D1092E90010921C0310921B039093FE
:101A90001A0380931903898D811156C08E899D89FF
:101AA000913A59F4813209F080C047E050E064E097
:101AB00071E080E00E94920A74C0913209F075C012
:101AC000833289F4888D90E0982F88272F89822B84
:101AD000A0E0B0E08093000190930101A093020187
:101AE000B09303015EC0803269F48091E80082FF08
:101AF000FCCF67E084E091E00E94CF048BEF8093FD
:101B0000E80006C0823209F04CC08F8980930B0137
:101B100080911D03882319F0EEEFFAE002C0E0E0A7
:101B2000F8E08091040190910501A0910601B09127
:101B30000701803B9440A105B10509F088C0809160
:101B40000B0180FFA0C083C00E94130ADC01129623
:101B50000D911C9113970115110539F1D801ED91E3
:101B6000FC910190F081E02DBE016B5E7F4FC801BA
:101B70000995811116C0F80100851185ECCF11304F
:101B8000C1F0133091F48F89882309F455C0823055
:101B9000E9F440E860E18BE591E00E94550A882372
:101BA00021F08EEF8093E80087C081E28093EB0004
:101BB00083C08B8D9C8D089711F41093180380912E
:101BC0001803811136C06CE671E038C0813029F409
:101BD00040E86BE08FE491E0E0CF833031F70E9482
:101BE000130ADC011296ED90FC9013978E010F5FA3
:101BF0001F4F6801E114F10479F0D701ED91FC91D8
:101C00000680F781E02DB801C7010995080F111D65
:101C1000F701E084F184EECFD8011C92F601019027
:101C20000020E9F73197BF016C197D0940E0C6013A
:101C3000B4CF6EE771E002C06BE471E0611571052D
:101C400009F4B3CFFB01449150E080E833CF0FB6E5
:101C5000F894A8958091600088618093600010924C
:101C600060000FBEA895EE3F2AE0F20739F08091A0
:101C7000FE0A9091FF0A9183808393CF1092FF0A0E
:101C80001092FE0A8ECFEE3F8AE0F80731F0808195
:101C900091819093FF0A8093FE0A87E797E79183EB
:101CA00080839BE088E10FB6F894A895809360004C
:101CB0000FBE9093600075CF6C960FB6F894DEBFA0
:101CC0000FBECDBFDF91CF91FF91EF91BF91AF914B
:101CD0009F918F917F916F915F914F913F912F9144
:101CE0001F910F91FF90EF90DF90CF900F900FBE5C
:101CF0000F901F90189580911603909117030C94E4
:101D00007112CF92EF920F93EBE5F1E01382128202
:101D100088EE93E0A0E0B0E084839583A683B78348
:101D200087E391E0918380838FEF9FEF958784878E
:101D3000E0EDF2E010828EE58093110384E280935F
:101D400012038CE280931303109217031092160370
:101D500010921503109214031182CC24C39485E0D1
:101D6000E82E04E023E042E061E08CE892E00E948B
:101D70005E0725E044E061E088E492E00E945E07AF
:101D800029E048E061E084E092E00E945E0720E103
:101D90004AE061E080EC91E00E945E071092BF0192
:101DA0000F91EF90CF900895789484B5826084BDB0
:101DB00084B5816084BD85B5826085BD85B581604F
:101DC00085BD80916E00816080936E0010928100CD
:101DD0008091810082608093810080918100816088
:101DE0008093810080918000816080938000809149
:101DF0009100826080939100809191008160809336
:101E00009100809190008160809390008091C1004A
:101E100084608093C1008091C10082608093C10082
:101E20008091C10081608093C1008091C300816076
:101E30008093C3008091C00082608093C000809135
:101E4000C20081608093C20080917A008460809398
:101E50007A0080917A00826080937A0080917A0083
:101E6000816080937A0080917A00806880937A0004
:101E700010925A0110921E03109258018091D700BF
:101E800081608093D70080EA8093D80089B5806113
:101E900089BD89B5826089BD09B400FEFDCF61E0CE
:101EA00070E080E090E00E94DC048091D8008F7C9C
:101EB00080618093D8008091E000807F8093E00073
:101EC0008091E1008E7E8093E1008DE08093E200BE
:101ED000559A209AEEEFFFE7859194918B3F9C4DA8
:101EE00019F481E080931D038EE00E94830B8FE044
:101EF0000E94830B8FEF9FEF90936801809367019F
:101F00008CE892E00E94290B88E492E00E94290B61
:101F100084E092E00E94290B80EC91E00E94290B62
:101F2000E091BF01EA3068F481E08E0F8093BF0139
:101F3000F0E0EE0FFF1FE555FE4F8CE892E0918335
:101F40008083E091BF01EA3068F481E08E0F8093D6
:101F5000BF01F0E0EE0FFF1FE555FE4F88E492E071
:101F600091838083E091BF01EA3068F481E08E0FB5
:101F70008093BF01F0E0EE0FFF1FE555FE4F84E0B8
:101F800092E091838083E091BF01EA3068F481E0C0
:101F90008E0F8093BF01F0E0EE0FFF1FE555FE4F5F
:101FA00080EC91E09183808362E174E083E491E0CE
:101FB0000E94EB0A66EF77E088E491E00E94EB0A6A
:101FC00041EDC42E42E0D42E50E0452E50E0552E77
:101FD000332433948BE591E00E946D01892B09F441
:101FE00083C08BE591E00E945F04F6010190002020
:101FF000E9F7E25DF24090911103891305C0309238
:10200000D0021092D102E6CF90911203891362C0E0
:102010002091130380E090E001E010E08E179F070D
:1020200059F0DC01A053BD4F11963C91321302C010
:102030000F5F1F4F0196F2CFC801880F991F0E94B2
:10204000DC11EC01D982C88230911303E1EDF2E09A
:1020500080E090E02191222371F02313FBCFDF0178
:1020600011971C920196DC01AA0FBB1FAC0FBD1F7C
:10207000ED93FC93EFCFA0901403B0901503E09084
:102080001603F0901703612C712C6A147B04D1F0B5
:10209000470168817981D7018D919C910E94E1135C
:1020A000B4E0EB0EF11C892B49F4D4011296ED91AA
:1020B000FC911397B801CE01099504C0BFEF6B1ACC
:1020C0007B0AE3CFCE010E9471121092D1021092CE
:1020D000D00280CF9091D002992309F47BCFE053B6
:1020E000FD4F8183128276CF4114510409F472CFDF
:1020F0000E9400006FCF052E97FB1EF400940E94F3
:10210000921057FD07D00E94A01007FC03D04EF498
:102110000C94921050954095309521953F4F4F4F1C
:102120005F4F089590958095709561957F4F8F4F83
:102130009F4F0895EE0FFF1F0590F491E02D099435
:10214000A1E21A2EAA1BBB1BFD010DC0AA1FBB1FBB
:10215000EE1FFF1FA217B307E407F50720F0A21B2D
:10216000B30BE40BF50B661F771F881F991F1A949A
:1021700069F760957095809590959B01AC01BD01C4
:10218000CF0108955058BB27AA270E94DA100C945B
:1021900017150E94091538F00E94101520F039F427
:1021A0009F3F19F426F40C9406150EF4E095E7FB16
:1021B0000C940015E92F0E94281558F3BA176207EE
:1021C00073078407950720F079F4A6F50C944A1557
:1021D0000EF4E0950B2EBA2FA02D0B01B901900142
:1021E0000C01CA01A0011124FF27591B99F0593F86
:1021F00050F4503E68F11A16F040A22F232F342FCE
:102200004427585FF3CF469537952795A795F0401B
:102210005395C9F77EF41F16BA0B620B730B840B30
:10222000BAF09150A1F0FF0FBB1F661F771F881FE8
:10223000C2F70EC0BA0F621F731F841F48F4879540
:1022400077956795B795F7959E3F08F0B0CF939532
:10225000880F08F09927EE0F9795879508950E94AB
:1022600043110C9417150E94101558F00E9409157F
:1022700040F029F45F3F29F00C94001551110C94A3
:102280004B150C9406150E94281568F39923B1F399
:10229000552391F3951B550BBB27AA27621773078C
:1022A000840738F09F5F5F4F220F331F441FAA1F20
:1022B000A9F335D00E2E3AF0E0E832D091505040DC
:1022C000E695001CCAF72BD0FE2F29D0660F771F8A
:1022D000881FBB1F261737074807AB07B0E809F070
:1022E000BB0B802DBF01FF2793585F4F3AF09E3FF5
:1022F000510578F00C9400150C944B155F3FE4F3F6
:10230000983ED4F3869577956795B795F7959F5F37
:10231000C9F7880F911D9695879597F90895E1E083
:10232000660F771F881FBB1F621773078407BA07E2
:1023300020F0621B730B840BBA0BEE1F88F7E0953D
:1023400008950E94A8116894B1110C944B1508953A
:102350000E94301588F09F5798F0B92F9927B751F0
:10236000B0F0E1F0660F771F881F991F1AF0BA9539
:10237000C9F714C0B13091F00E944A15B1E0089538
:102380000C944A15672F782F8827B85F39F0B93F2A
:10239000CCF3869577956795B395D9F73EF49095EC
:1023A0008095709561957F4F8F4F9F4F08950E9444
:1023B0006F1408F48FEF0895CF93DF938230910567
:1023C00010F482E090E0E0912D03F0912E0320E0E4
:1023D00030E0C0E0D0E0309711F1408151814817E2
:1023E0005907C0F04817590761F4828193812097FB
:1023F00019F09B838A832BC090932E0380932D0327
:1024000026C02115310519F04217530718F49A0117
:10241000BE01DF01EF010280F381E02DDCCF211549
:10242000310509F1281B390B2430310590F412963F
:102430008D919C9113976115710521F0FB01938398
:10244000828304C090932E0380932D03FD01329666
:1024500044C0FD01E20FF31F819391932250310993
:102460002D933C933AC020912B0330912C03232BC6
:1024700041F420910E0130910F0130932C032093F1
:102480002B0320910C0130910D012115310541F4F0
:102490002DB73EB74091100150911101241B350B0F
:1024A000E0912B03F0912C03E217F307A0F42E1B0D
:1024B0003F0B2817390778F0AC014E5F5F4F2417A8
:1024C000350748F04E0F5F1F50932C0340932B03AA
:1024D0008193919302C0E0E0F0E0CF01DF91CF91D2
:1024E00008950F931F93CF93DF93009709F48CC047
:1024F000FC0132971382128200912D0310912E035A
:102500000115110581F420813181820F931F2091E3
:102510002B0330912C032817390779F5F0932C03FE
:10252000E0932B0371C0D80140E050E0AE17BF0725
:1025300050F412962D913C911397AD012115310560
:1025400009F1D901F3CF9D01DA0133832283608140
:102550007181860F971F8217930769F4EC01288118
:102560003981260F371F2E5F3F4F318320838A81A9
:102570009B8193838283452B29F4F0932E03E09370
:102580002D0342C01396FC93EE931297ED014991EF
:1025900059919E01240F351FE217F30771F48081D2
:1025A0009181840F951F029611969C938E93828140
:1025B000938113969C938E931297E0E0F0E0D801FC
:1025C00012968D919C911397009719F0F8018C0148
:1025D000F6CF8D919C9198012E5F3F4F820F931FF4
:1025E00020912B0330912C032817390769F4309779
:1025F00029F410922E0310922D0302C0138212822E
:1026000010932C0300932B03DF91CF911F910F9117
:102610000895A0E0B0E0EFE0F3E10C945515EC0173
:10262000009721F4CB010E94DC11B8C0FC01E60F39
:10263000F71F9C0122503109E217F30708F4ACC0E0
:10264000D9010D911C91119706171707B0F00530AD
:10265000110508F49FC0C80104978617970708F46E
:1026600099C002501109061B170B019311936D932A
:102670007C93CF010E9471128DC05B01A01AB10A38
:102680004C01800E911EA0912D03B0912E0340E0CD
:1026900050E0E12CF12C109709F44AC0A815B905B7
:1026A000D1F56D907C901197630182E0C80ED11C2A
:1026B000CA14DB0480F1A3014A195B096A0182E0B4
:1026C000C80ED11C1296BC9012971396AC91B5E02F
:1026D000CB16D10440F0B282A38351834083D90149
:1026E0006D937C930AC00E5F1F4FC301800F911F33
:1026F000F90191838083EB2DFA2FE114F10431F07D
:10270000D7011396FC93EE93129744C0F0932E03D7
:10271000E0932D033FC08D919C9111974817590765
:1027200008F4AC017D0112960D90BC91A02DB3CFA1
:1027300080912B0390912C0388159905E1F446179D
:102740005707C8F480910C0190910D01009741F456
:102750008DB79EB74091100150911101841B950BCC
:10276000E817F907C8F4F0932C03E0932B03F90161
:10277000718360830FC0CB010E94DC117C01009744
:1027800059F0A801BE010E94D813CE010E94711217
:10279000C70104C0CE0102C080E090E0CDB7DEB733
:1027A000EEE00C94711581E090E0F8940C9488159B
:1027B000FB01DC0102C001900D9241505040D8F75E
:1027C0000895FB01DC018D91019080190110D9F36E
:1027D000990B0895FB01DC0101900D920020E1F7B7
:1027E00008951F93FC0199278827BC01E894119153
:1027F0001032E9F3193010F01E30C8F31B3251F0DB
:102800001D3249F4689406C00E941814610F711DAE
:10281000811D911D119110531A30B0F33EF4909523
:102820008095709561957F4F8F4F9F4F1F910895B1
:10283000592F482F372F262F660F771F881F991F74
:10284000660F771F881F991F620F731F841F951FC4
:10285000660F771F881F991F08950E946F1408F450
:1028600081E00895E89409C097FB3EF49095809527
:10287000709561957F4F8F4F9F4F9923A9F0F92F46
:1028800096E9BB279395F695879577956795B795C4
:10289000F111F8CFFAF4BB0F11F460FF1BC06F5FAA
:1028A0007F4F8F4F9F4F16C0882311F096E911C0BC
:1028B000772321F09EE8872F762F05C0662371F0DD
:1028C00096E8862F70E060E02AF09A95660F771FF1
:1028D000881FDAF7880F9695879597F90895990FCD
:1028E0000008550FAA0BE0E8FEEF16161706E807DA
:1028F000F907C0F012161306E407F50798F0621BFB
:10290000730B840B950B39F40A2661F0232B242BCF
:10291000252B21F408950A2609F4A140A6958FEFEE
:10292000811D811D08950E94A6140C9417150E9404
:10293000091538F00E94101520F0952311F00C9421
:1029400000150C94061511240C944B150E942815A3
:1029500070F3959FC1F3950F50E0551F629FF001F2
:10296000729FBB27F00DB11D639FAA27F00DB11D0B
:10297000AA1F649F6627B00DA11D661F829F222794
:10298000B00DA11D621F739FB00DA11D621F839F1B
:10299000A00D611D221F749F3327A00D611D231FF1
:1029A000849F600D211D822F762F6A2F11249F573F
:1029B00050409AF0F1F088234AF0EE0FFF1FBB1F42
:1029C000661F771F881F91505040A9F79E3F510501
:1029D00080F00C9400150C944B155F3FE4F3983E87
:1029E000D4F3869577956795B795F795E7959F5FAB
:1029F000C1F7FE2B880F911D9695879597F908953D
:102A000097F99F6780E870E060E008959FEF80ECA1
:102A1000089500240A941616170618060906089544
:102A200000240A9412161306140605060895092EAA
:102A30000394000C11F4882352F0BB0F40F4BF2B19
:102A400011F460FF04C06F5F7F4F8F4F9F4F089559
:102A500057FD9058440F551F59F05F3F71F047954F
:102A6000880F97FB991F61F09F3F79F08795089534
:102A7000121613061406551FF2CF4695F1DF08C053
:102A8000161617061806991FF1CF86957105610570
:102A900008940895E894BB2766277727CB0197F918
:102AA00008952F923F924F925F926F927F928F92F2
:102AB0009F92AF92BF92CF92DF92EF92FF920F93CD
:102AC0001F93CF93DF93CDB7DEB7CA1BDB0B0FB6D7
:102AD000F894DEBF0FBECDBF09942A883988488894
:102AE0005F846E847D848C849B84AA84B984C8842A
:102AF000DF80EE80FD800C811B81AA81B981CE0F21
:102B0000D11D0FB6F894DEBF0FBECDBFED01089505
:102B100010E0C6EFD0E004C0FE010E949A1021969A
:0A2B2000C73FD107C9F7F894FFCFB3
:102B2A00FFFFFFFF00E100000000000000002F038C
:102B3A008000000000000F02A1049103CD037B0373
:102B4A0039031803E402C3026D02290200C180811D
:102B5A00000000000000004C0116056D015F047DB5
:0E2B6A000462015A45524F004D4F564500007F
:00000001FF
