:100000000C946E000C9496000C9496000C94960040
:100010000C9496000C9496000C9496000C94960008
:100020000C9496000C9496000C9496000C949600F8
:100030000C9496000C9496000C9496000C949600E8
:100040000C94D5090C9496000C94A3090C947D098A
:100050000C9496000C9496000C9496000C949600C8
:100060000C9496000C9496007F0285028B029102FC
:1000700097029D02A3021A04210428042F043604C7
:100080004D043D044D04440400000008000201003A
:100090000003040700000000000000000000000052
:1000A000250028002B0000000000240027002A0063
:1000B000040404040404040402020202020203030E
:1000C0000303030301020408102040800102040816
:1000D00010200102040810201F0AFB0B11241FBE70
:1000E000CFEFD8E0DEBFCDBF11E0A0E0B1E0E6E3A6
:1000F000F2E202C005900D92AA33B107D9F723E0CE
:10010000AAE3B1E001C01D92A135B207E1F710E00A
:10011000CDE6D0E004C02197FE010E94200CCC3631
:10012000D107C9F70E948A0A0C940E110C940000A2
:1001300090E0FC01EC53FF4F2491FC01E055FF4F90
:100140008491882399F090E0880F991FFC01EA556B
:10015000FF4FA591B491FC01E456FF4F8591949116
:100160008FB7F894EC91E22BEC938FBF0895CF9268
:10017000DF92EF92FF920F931F93CF93DF936C0167
:100180007A018B01C0E0D0E0CE15DF0589F0D801FF
:100190006D918D01D601ED91FC910190F081E02DE2
:1001A000C6010995892B11F47E0102C02196ECCF7E
:1001B000C701DF91CF911F910F91FF90EF90DF90DA
:1001C000CF900895FC01918D828D981761F0828DFA
:1001D000DF01A80FB11D5D968C91928D9F5F9F737B
:1001E000928F90E008958FEF9FEF0895FC01918D1D
:1001F000828D981731F0828DE80FF11D858D90E08A
:1002000008958FEF9FEF0895FC01918D228D892F26
:1002100090E0805C9F4F821B91098F73992708950E
:1002200083E491E00E94040121E0892B09F420E09D
:10023000822F0895FC01848DDF01A80FB11DA35A00
:10024000BF4F2C91848D90E001968F739927848FF6
:10025000A689B7892C93A089B1898C9180648C93ED
:10026000938D848D981306C00288F389E02D8081D8
:100270008F7D80830895EF92FF920F931F93CF930A
:10028000DF93EC0181E0888F9B8D8C8D981305C0E6
:10029000E889F989808185FD24C0F62E0B8D10E058
:1002A0000F5F1F4F0F731127E02E8C8DE8120CC0CB
:1002B0000FB607FCFACFE889F989808185FFF5CF71
:1002C000CE010E941A01F1CF8B8DFE01E80FF11DC6
:1002D000E35AFF4FF0820B8FEA89FB8980818062AD
:1002E00007C0EE89FF896083E889F989808180648D
:1002F000808381E090E0DF91CF911F910F91FF907B
:10030000EF900895CF93DF93EC01888D8823C9F097
:10031000EA89FB89808185FD05C0A889B9898C910E
:1003200086FD0FC00FB607FCF5CF808185FFF2CFA9
:10033000A889B9898C9185FFEDCFCE010E941A0161
:10034000E7CFDF91CF91089580E090E0892B29F0ED
:100350000E94100181110C940000089590E0FC01AE
:10036000E857FF4F3491FC01EC53FF4F2491FC01FF
:10037000E055FF4FE491EE2309F43BC0332339F1FC
:10038000333091F038F43130A9F0323001F584B5D2
:100390008F7D12C0373091F03830A1F03430B9F48D
:1003A000809180008F7D03C0809180008F77809343
:1003B00080000DC084B58F7784BD09C08091B000E6
:1003C0008F7703C08091B0008F7D8093B000F0E004
:1003D000EE0FFF1FE456FF4FA591B4918FB7F8942D
:1003E000EC91611103C020952E2301C02E2B2C937C
:1003F0008FBF08953FB7F89480913F0190914001DD
:10040000A0914101B091420126B5A89B05C02F3FA4
:1004100019F00196A11DB11D3FBFBA2FA92F982F2A
:100420008827820F911DA11DB11DBC01CD0142E0A5
:10043000660F771F881F991F4A95D1F70895CF93AC
:10044000DF93FC012281222329F1EC0183810E94A8
:1004500098008C810E9498008A81843011F0883045
:1004600029F48D810E9498008E8105C0833011F09F
:10047000863019F48D810E9498008EA58F3F51F02F
:100480000E9498006DA581E068278EA5DF91CF912D
:100490000C94AE01DF91CF910895CF93DF93FC01CF
:1004A0002281222389F0EC010190F081E02D04806B
:1004B000F581E02D60E009958EA58F3F29F06DA5AF
:1004C000DF91CF910C94AE01DF91CF910895CF933E
:1004D000DF934770552766277727FA013197EC019C
:1004E000A881B981E730F10520F4EC5CFF4F0C9452
:1004F000200C1496ED91FC91159761E029C014969B
:10050000ED91FC91159765E023C01496ED91FC9157
:10051000159764E01DC01496ED91FC91159766E067
:1005200017C01496ED91FC91159762E011C01496D6
:10053000ED91FC9115976AE00BC01496ED91FC913A
:10054000159768E005C01496ED91FC91159769E048
:10055000DF91CF910994CF93DF93EC01CB01BA01E6
:1005600026E030E040E050E00E94010C623071056E
:100570008105910559F18CF461157105810591058D
:10058000F1F06130710581059105C1F5E881F981CE
:100590000480F581E02D65E02DC064307105810592
:1005A000910511F1D4F0653071058105910531F5A2
:1005B000E881F9810480F581E02D66E01BC0E881C7
:1005C000F9810480F581E02D64E014C0E881F981AF
:1005D0000480F581E02D61E00DC0E881F98104809F
:1005E000F581E02D63E006C0E881F9810480F581A2
:1005F000E02D62E0CE01DF91CF910994DF91CF91A0
:1006000008954370552766277727DC01ED91FC910B
:100610000480F581E02D423051056105710571F0CE
:10062000433051056105710559F0413051056105AF
:10063000710511F065E005C066E003C06AE001C025
:1006400069E00994CF93DF93EC01CB01BA0123E079
:1006500030E040E050E00E94010C613071058105FE
:10066000910581F0623071058105910591F0672B4C
:10067000682B692BC1F4E881F9810480F581E02DB4
:1006800064E00DC0E881F9810480F581E02D61E02E
:1006900006C0E881F9810480F581E02D62E0CE0199
:1006A000DF91CF910994DF91CF9108954370552741
:1006B00066277727DC01ED91FC910480F581E02D20
:1006C000423051056105710571F0433051056105F6
:1006D000710559F0413051056105710511F062E075
:1006E00005C063E003C061E001C060E009940F93BE
:1006F0001F93CF93DF93EC01E881F9810480F581AA
:10070000E02D8C010D5B1F4FD8018C91811102C02F
:1007100060E001C062E0CE010995E881F9810480C2
:10072000F581E02DD8018C91811102C061E001C0FA
:1007300063E0CE010995EBA5FCA5E230F10538F0A8
:10074000EE0FFF1FEE0FFF1F35973197F1F7E8818E
:10075000F9810480F581E02DD8018C91811102C0CE
:1007600060E001C062E0CE01DF91CF911F910F9157
:100770000994CF93DF93EC0120E030E0A9016B896D
:100780007C898D899E890E945D0D18161CF4EFA549
:10079000F8A902C0E9A9FAA9DF91CF910994CF92F3
:1007A000DF92EF92FF920F931F93CF93DF93FC01A1
:1007B0002281243041F0283031F0233031F02630CE
:1007C00021F012E003C014E001C013E0EC01279611
:1007D000E12CF12CC62ED12C01E0C6010E2C02C05A
:1007E000959587950A94E2F7688180FD6027FE0160
:1007F000349780810E94AE01FFEFEF1AFF0A219625
:10080000E11658F3DF91CF911F910F91FF90EF9078
:10081000DF90CF9008950F931F93DC011296EC9117
:100820000E2F10E009301105C0F5F801E55CFF4F0F
:100830000C94200CDC01ED91FC910084F185E02DFD
:1008400029C0DC01ED91FC910284F385E02D22C0EA
:10085000DC01ED91FC910484F585E02D1BC0DC01E9
:10086000ED91FC910684F785E02D14C0DC01ED913B
:10087000FC910088F189E02D0DC0DC01ED91FC9127
:100880000288F389E02D06C0DC01ED91FC9104881B
:10089000F589E02D1F910F9109941F910F910895F3
:1008A0002F923F924F925F926F927F928F929F9280
:1008B000AF92BF92CF92DF92EF92FF920F931F936E
:1008C000CF93DF9300D000D0CDB7DEB71C01FC0181
:1008D00087849088A188B28883859485A585B6850C
:1008E000881A990AAA0ABB0A638974898589968934
:1008F0009B01AC010E9419106B017C01F101638D19
:10090000748D858D968D9B01AC010E94490C9B01D5
:10091000AC01C701B6010E94B50C0E94270D8114DD
:100920009104A104B104A1F462307105810591051F
:100930000CF07CC0F10113A214A215A216A2138A16
:10094000148A158A168A13AA14AA15AA16AA03C10C
:10095000F10103A914A925A936A9ED5BFF4F1814CD
:1009600019041A041B04FCF41016110612061306CF
:100970004CF4681579058A059B054CF520812111F9
:1009800055C025C0011511052105310509F44EC0DA
:10099000681579058A059B050CF048C0808188237D
:1009A00009F444C037C01016110612061306F4F4F9
:1009B000002711279801081919092A093B0960170E
:1009C0007107820793071CF42081222379F19B0190
:1009D000AC0188279927DC01821B930BA40BB50B74
:1009E000F10183AB94ABA5ABB6AB20C001151105EB
:1009F00021053105D9F0CC24DD247601C818D908A9
:100A0000EA08FB086C157D058E059F057CF4808146
:100A100081110CC030952095109501951F4F2F4FD7
:100A20003F4FF10103AB14AB25AB36ABF101C3A8CB
:100A3000D4A8E5A8F6A881010D5B1F4FC114D1040D
:100A4000E104F10491F487A990ADA1ADB2AD83AFFB
:100A500094AFA5AFB6AF81E0181419041A041B04B3
:100A60000CF080E0F801808340C0F10183AC94ACCD
:100A7000A5ACB6ACA5019401C501B4010E94490C16
:100A80002B013C01C701B6010E94BA0F20E030E003
:100A900040E850E40E94191020E030E040E85FE3B5
:100AA0000E94490C9B01AC01C301B2010E94B50C2C
:100AB0009B01AC01C501B4010E94480C4B015C01D3
:100AC000F101FF9640805180628073809201A30102
:100AD0000E945D0D181614F042015301A401B501E6
:100AE000F10143AF54AF65AF76AFFFEFCF1ADF0A26
:100AF000EF0AFF0AF101C3AAD4AAE5AAF6AA23AD18
:100B000034AD45AD56ADCA01B90129833A834B8353
:100B10005C830E942E0DF10163A374A385A396A3A9
:100B200029813A814B815C8160E074E284E799E439
:100B30000E94B50CF101638B748B858B968BF80149
:100B40002081211108C0DC01CB01B058F101838B59
:100B5000948BA58BB68B0F900F900F900F90DF9119
:100B6000CF911F910F91FF90EF90DF90CF90BF90AA
:100B7000AF909F908F907F906F905F904F903F903D
:100B80002F900895CF92DF92EF92FF92CF93DF9351
:100B9000EC0120E030E04AE754E46F89788D898DDC
:100BA0009A8D0E94B30F8823F1F180E090E0AAE7CC
:100BB000B4E48F8B988FA98FBA8FFE01FF96808344
:100BC0009183A283B3838BA99CA9ADA9BEA9181652
:100BD00019061A061B063CF56B897C898D899E894E
:100BE0009B01AC010E9419106B017C016B8D7C8D07
:100BF0008D8D9E8D9B01AC010E94490C9B01AC0127
:100C0000C701B6010E94B50C0E94270D6BAB7CABEF
:100C10008DAB9EABCE01DF91CF91FF90EF90DF9037
:100C2000CF900C945004DF91CF91FF90EF90DF9024
:100C3000CF900895E1ECF2E01386148615861686AF
:100C40001786108A118A128A13AA14AA15AA16AA3C
:100C500013A214A215A216A2EDE7F2E013861486E1
:100C6000158616861786108A118A128A13AA14AA64
:100C700015AA16AA13A214A215A216A2E9E3F2E07D
:100C800013861486158616861786108A118A128A8C
:100C900013AA14AA15AA16AA13A214A215A216A280
:100CA000E5EFF1E013861486158616861786108AFE
:100CB000118A128A13AA14AA15AA16AA13A214A298
:100CC00015A216A268E583E491E00C943B01CF9253
:100CD000DF92EF92FF920F931F93CF93DF938C01DC
:100CE000EB0189E4E82E83E0F82EF7016081718141
:100CF0006F5F7F4F71836083660F771F660F771F6B
:100D00002BE4C22E23E0D22EF601808191810E9435
:100D10008F0EF60191838083F70120813181F901E3
:100D2000E150F04CEE0FFF1FEE0FFF1FE80FF91F11
:100D300011830083D383C283DF91CF911F910F91E1
:100D4000FF90EF90DF90CF9008950E94590FCF92BF
:100D5000DF92EF92FF920F93CF93DF93EC018AE043
:100D600091E0998388836A831B861C861D861E8674
:100D70001F86188A198A1A8A1B8A1C8A1D8A1E8A4B
:100D800080E090E0A0E8BFE38F8B988FA98FBA8FA7
:100D90001B8E1C8E1D8E1E8E8F8F98A3A9A3BAA3A7
:100DA0001BA21CA21DA21EA261E070E07CA76BA783
:100DB0003FEF3EA71FA218A619A61AA64B832C83A5
:100DC0000D83EE821BAA1CAA1DAA1EAA1FAA18AE7A
:100DD00019AE1AAE1BAE1CAE1DAE1EAEFE01FF96C6
:100DE00080839183A283B383349610821F821886F6
:100DF00019861A86CC2019F0CE010E941F02CB8CD6
:100E0000DC8CED8CFE8C20E030E040E85FE3C70135
:100E1000B6010E94B30F882351F16BA97CA98DA95B
:100E20009EA90E94BA0FA70196010E9419100E9464
:100E3000270D6BAB7CAB8DAB9EAB86E896E6A9E647
:100E4000B9E48FAB98AFA9AFBAAF80E090E0A0E86B
:100E5000BFE38B8F9C8FAD8FBE8FCE01DF91CF9183
:100E60000F91FF90EF90DF90CF900C945004DF91A2
:100E7000CF910F91FF90EF90DF90CF9008952F9238
:100E80003F924F925F926F927F928F929F92AF921A
:100E9000BF92CF92DF92EF92FF920F931F93CF9367
:100EA000DF93CDB7DEB765970FB6F894DEBF0FBE00
:100EB000CDBF8C014B0161E08EE00E94AE0160E08D
:100EC0008FE00E94AE019E012F5F3F4F590180E1EC
:100ED000D9011D928A95E9F779010E5F1F4F19011B
:100EE000CC24C394D12CC814D9047CF5F8014190CA
:100EF00051908F014114510409F4F9C1F20101909C
:100F00000020E9F7BF016419750980E090E00E94B4
:100F10008F0E3C01009709F4EAC1DC011C92B2017A
:100F20000E94700FC3010E94770F362D272DF1010B
:100F300061937193819391931F01832F922F0E944C
:100F4000F70DFFEFCF1ADF0ACECFC090F40100EE0D
:100F500011E0D12C198A1A8A1B8A1C8ADC14C9F167
:100F6000F70181919191A191B1917F01F801819057
:100F700091908F01F4014384548465847684BC018C
:100F8000CD01641975098609970997FF07C09095E7
:100F90008095709561957F4F8F4F9F4F0E94BA0F3C
:100FA000D40157962D913D914D915C915A970E9495
:100FB000B50C3B014C0129893A894B895C890E9417
:100FC0005D0D181624F4698A7A8A8B8A9C8AD394D8
:100FD000C5CF20E030E0A90169897A898B899C8995
:100FE0000E945D0D18160CF0B5C0612C8091F401C3
:100FF000681608F0AFC0062D10E0F501B4E06B9E56
:10100000E00DF11D11242080318042805380000FBB
:10101000111FF801E052FE4FE080F180F701838557
:101020009485A585B685A2019101281B390B4A0B31
:101030005B0BCA01B9010E94BA0F29893A894B8911
:101040005C890E94B50C6D8B772E4C01F70187856A
:101050009089A189B28982159305A405B50539F057
:101060002786308A418A528AC7010E945004F801BB
:10107000E052FE4F00811181F801238934894589AE
:1010800056896D89772DC4010E94B30F882309F416
:101090005FC0D8015796CD90DD90ED90FC905A97A7
:1010A0001601270157FA509457F85094A201910164
:1010B0006D89772DC4010E94B30F87FD0DC0A70174
:1010C00096016D89772DC4010E945D0D181634F0CC
:1010D000CD88D72C740102C07201610120E030E09C
:1010E000A901C701B6010E94B30F811106C0F80122
:1010F00013A214A215A216A224C0A701960160E0B3
:1011000074E284E799E40E94B50C9F770E942E0D4B
:10111000D80193966D937D938D939C9396974801F8
:10112000B3E48B0E911C7724739420E030E0A90186
:10113000C701B6010E945D0D18160CF0712CF40168
:101140007082D8015396CD92DD92ED92FC92569723
:1011500063944CCF80E0B12C9091F401B91608F063
:1011600078C0EB2DF0E0EE0FFF1FE052FE4F008144
:101170001181F801C784D088E188F28843855485BD
:1011800065857685C416D506E606F70609F45FC0C0
:1011900083A194A1A5A1B6A1892B8A2B8B2B09F43D
:1011A00055C00E94FA016B017C01D80197964D91C0
:1011B0005D916D917C919A9793968D919D910D90F3
:1011C000BC91A02D840F951FA61FB71F84179507EC
:1011D000A607B70730F0C816D906EA06FB0658F48A
:1011E00005C0C816D906EA06FB0680F1C416D50666
:1011F000E606F70658F5F801ED5BFF4F2081F80190
:1012000083859485A585B685222321F00196A11DAD
:10121000B11D04C00197A109B109F8018387948722
:10122000A587B687D801ED91FC9111971B964D913A
:101230005D916D917C911E970680F781E02DC8012C
:101240000995F801C7A2D0A6E1A6F2A681E0B39461
:1012500083CF81117FCF0E94FA014B015C0188EEA0
:10126000C82E83E0D82EE12CF12C0E94FA01DC017B
:10127000CB0188199909AA09BB09883E9340A105A9
:10128000B10558F0F1E0CF1AD108E108F10828EED5
:10129000820E23E0921EA11CB11CC114D104E104F2
:1012A000F10419F76DE483E491E00E943B0160E0F2
:1012B0008EE00E94AE0161E08FE065960FB6F89473
:1012C000DEBF0FBECDBFDF91CF911F910F91FF9079
:1012D000EF90DF90CF90BF90AF909F908F907F90D6
:1012E0006F905F904F903F902F900C94AE0130E044
:1012F00020E060E070E0CB011ACE1F920F920FB693
:101300000F9211242F933F934F935F936F937F938B
:101310008F939F93AF93BF93EF93FF9383E491E0F9
:101320000E941A01FF91EF91BF91AF919F918F9110
:101330007F916F915F914F913F912F910F900FBED1
:101340000F901F9018951F920F920FB60F921124B5
:101350002F938F939F93EF93FF93E0915301F0911D
:1013600054018081E0915901F0915A0182FD12C02F
:10137000908180915C018F5F8F7320915D01821756
:1013800051F0E0915C01F0E0ED5BFE4F958F8093B2
:101390005C0101C08081FF91EF919F918F912F910E
:1013A0000F900FBE0F901F9018951F920F920FB6BF
:1013B0000F9211242F933F938F939F93AF93BF93DB
:1013C00080913B0190913C01A0913D01B0913E0183
:1013D00030913A0123E0230F2D3720F40196A11D0F
:1013E000B11D05C026E8230F0296A11DB11D209353
:1013F0003A0180933B0190933C01A0933D01B0934F
:101400003E0180913F0190914001A0914101B09136
:1014100042010196A11DB11D80933F0190934001AF
:10142000A0934101B0934201BF91AF919F918F91E1
:101430003F912F910F900FBE0F901F901895CF9254
:10144000EF920F93E3E4F1E01382128288EE93E0CF
:10145000A0E0B0E084839583A683B78384E291E023
:101460009183808385EC90E09587848784EC90E07D
:101470009787868780EC90E0918B808B81EC90E061
:10148000938B828B82EC90E0958B848B86EC90E042
:10149000978B868B118E128E138E148EE5E0F3E0FF
:1014A00010828EE58093460384E2809347038CE2AA
:1014B0008093480310924C0310924B0310924A03FE
:1014C000109249031182CC24C39485E0E82E04E0F5
:1014D00023E042E061E081EC92E00E94A70625E073
:1014E00044E061E08DE792E00E94A70629E048E031
:1014F00061E089E392E00E94A70620E14AE061E012
:1015000085EF91E00E94A7061092F4010F91EF90F1
:10151000CF900895789484B5826084BD84B581604D
:1015200084BD85B5826085BD85B5816085BD8091AE
:101530006E00816080936E00109281008091810026
:10154000826080938100809181008160809381001E
:10155000809180008160809380008091B1008460E0
:101560008093B1008091B00081608093B000809141
:101570007A00846080937A0080917A008260809300
:101580007A0080917A00816080937A0080917A005D
:10159000806880937A001092C1008EE00E949800CB
:1015A0008FE00E949800E0915301F091540182E095
:1015B0008083E0914F01F09150011082E091510140
:1015C000F09152018FEC808310925B01E091570102
:1015D000F091580186E08083E0915501F091560129
:1015E000808180618083E0915501F0915601808176
:1015F00088608083E0915501F09156018081806878
:101600008083E0915501F091560180818F7D808328
:1016100081EC92E00E94C2058DE792E00E94C20533
:1016200089E392E00E94C20585EF91E00E94C20525
:10163000E091F401EA3068F481E08E0F8093F401C8
:10164000F0E0EE0FFF1FE052FE4F81EC92E091833D
:101650008083E091F401EA3068F481E08E0F80939A
:10166000F401F0E0EE0FFF1FE052FE4F8DE792E035
:1016700091838083E091F401EA3068F481E08E0F79
:101680008093F401F0E0EE0FFF1FE052FE4F89E37C
:1016900092E091838083E091F401EA3068F481E084
:1016A0008E0F8093F401F0E0EE0FFF1FE052FE4F2B
:1016B00085EF91E0918380836AE176E080E391E0B9
:1016C0000E9467066FE377E085E391E00E9467067A
:1016D00046E0E42E43E0F42EBB24B39483E491E08F
:1016E0000E940401892B09F483C083E491E00E94E5
:1016F000E200F70101900020E9F7E750F3409091F4
:101700004603891305C0B092050310920603E6CF85
:1017100090914703891362C02091480380E090E0D4
:1017200001E010E08E179F0759F0DC01AB5FBC4F62
:1017300011963C91321302C00F5F1F4F0196F2CFFA
:10174000C801880F991F0E94620DEC01F982E8829E
:1017500030914803E6E0F3E080E090E0219122231D
:1017600071F02313FBCFDF0111971C920196DC016E
:10177000AA0FBB1FAC0FBD1FED93FC93EFCF609082
:10178000490370904A03C0904B03D0904C03412C06
:10179000512C46145704D1F0460168817981D60155
:1017A0008D919C910E94670FB4E0CB0ED11C892BC8
:1017B00049F4D4011296ED91FC911397B801CE0132
:1017C000099504C0BFEF4B1A5B0AE3CFCE010E941C
:1017D000F70D109206031092050380CF9091050338
:1017E000992309F47BCFEB5FFC4F8183128276CF84
:1017F0000E94A40173CF80914B0390914C030C94F1
:10180000F70D052E97FB1EF400940E94180C57FD4F
:1018100007D00E94260C07FC03D04EF40C94180C41
:1018200050954095309521953F4F4F4F5F4F08950C
:1018300090958095709561957F4F8F4F9F4F08953C
:10184000EE0FFF1F0590F491E02D0994A1E21A2EEE
:10185000AA1BBB1BFD010DC0AA1FBB1FEE1FFF1F54
:10186000A217B307E407F50720F0A21BB30BE40BA4
:10187000F50B661F771F881F991F1A9469F76095EB
:101880007095809590959B01AC01BD01CF010895A5
:101890005058BB27AA270E94600C0C949D100E94F0
:1018A0008F1038F00E94961020F039F49F3F19F401
:1018B00026F40C948C100EF4E095E7FB0C94861043
:1018C000E92F0E94AE1058F3BA1762077307840716
:1018D000950720F079F4A6F50C94D0100EF4E0955D
:1018E0000B2EBA2FA02D0B01B90190010C01CA01DA
:1018F000A0011124FF27591B99F0593F50F4503E85
:1019000068F11A16F040A22F232F342F4427585F76
:10191000F3CF469537952795A795F0405395C9F78E
:101920007EF41F16BA0B620B730B840BBAF0915046
:10193000A1F0FF0FBB1F661F771F881FC2F70EC0E5
:10194000BA0F621F731F841F48F4879577956795B8
:10195000B795F7959E3F08F0B0CF9395880F08F0A4
:101960009927EE0F9795879508950E94C90C0C94BE
:101970009D100E94961058F00E948F1040F029F49C
:101980005F3F29F00C94861051110C94D1100C94E7
:101990008C100E94AE1068F39923B1F3552391F394
:1019A000951B550BBB27AA2762177307840738F0CE
:1019B0009F5F5F4F220F331F441FAA1FA9F335D02B
:1019C0000E2E3AF0E0E832D091505040E695001CDF
:1019D000CAF72BD0FE2F29D0660F771F881FBB1F99
:1019E000261737074807AB07B0E809F0BB0B802D77
:1019F000BF01FF2793585F4F3AF09E3F510578F0A3
:101A00000C9486100C94D1105F3FE4F3983ED4F30D
:101A1000869577956795B795F7959F5FC9F7880F76
:101A2000911D9695879597F90895E1E0660F771FC8
:101A3000881FBB1F621773078407BA0720F0621B59
:101A4000730B840BBA0BEE1F88F7E09508950E9484
:101A50002E0D6894B1110C94D11008950E94B61007
:101A600088F09F5798F0B92F9927B751B0F0E1F05F
:101A7000660F771F881F991F1AF0BA95C9F714C00F
:101A8000B13091F00E94D010B1E008950C94D010C4
:101A9000672F782F8827B85F39F0B93FCCF3869548
:101AA00077956795B395D9F73EF4909580957095A5
:101AB00061957F4F8F4F9F4F08950E94F50F08F457
:101AC0008FEF0895CF93DF938230910510F482E079
:101AD00090E0E0914F03F091500320E030E0C0E04F
:101AE000D0E0309711F14081518148175907C0F07B
:101AF0004817590761F482819381209719F09B83DD
:101B00008A832BC09093500380934F0326C02115E6
:101B1000310519F04217530718F49A01BE01DF018D
:101B2000EF010280F381E02DDCCF2115310509F1B1
:101B3000281B390B2430310590F412968D919C911D
:101B400013976115710521F0FB019383828304C013
:101B50009093500380934F03FD01329644C0FD01E2
:101B6000E20FF31F81939193225031092D933C93FF
:101B70003AC020914D0330914E03232B41F4209124
:101B800002013091030130934E0320934D032091C5
:101B90000001309101012115310541F42DB73EB707
:101BA0004091040150910501241B350BE0914D0338
:101BB000F0914E03E217F307A0F42E1B3F0B2817FA
:101BC000390778F0AC014E5F5F4F2417350748F0B6
:101BD0004E0F5F1F50934E0340934D03819391939B
:101BE00002C0E0E0F0E0CF01DF91CF9108950F93C4
:101BF0001F93CF93DF93009709F48CC0FC013297B9
:101C00001382128200914F031091500301151105A8
:101C100081F420813181820F931F20914D033091F7
:101C20004E032817390779F5F0934E03E0934D03DF
:101C300071C0D80140E050E0AE17BF0750F41296D3
:101C40002D913C911397AD012115310509F1D90171
:101C5000F3CF9D01DA013383228360817181860F86
:101C6000971F8217930769F4EC0128813981260FA9
:101C7000371F2E5F3F4F318320838A819B8193835F
:101C80008283452B29F4F0935003E0934F0342C025
:101C90001396FC93EE931297ED01499159919E0191
:101CA000240F351FE217F30771F480819181840FAF
:101CB000951F029611969C938E9382819381139621
:101CC0009C938E931297E0E0F0E0D80112968D91EC
:101CD0009C911397009719F0F8018C01F6CF8D9124
:101CE0009C9198012E5F3F4F820F931F20914D03CF
:101CF00030914E032817390769F4309729F4109270
:101D0000500310924F0302C01382128210934E03AD
:101D100000934D03DF91CF911F910F910895A0E0A3
:101D2000B0E0E5E9FEE00C94DB10EC01009721F453
:101D3000CB010E94620DB8C0FC01E60FF71F9C01A9
:101D400022503109E217F30708F4ACC0D9010D9114
:101D50001C91119706171707B0F00530110508F40C
:101D60009FC0C80104978617970708F499C00250CE
:101D70001109061B170B019311936D937C93CF01EF
:101D80000E94F70D8DC05B01A01AB10A4C01800EB4
:101D9000911EA0914F03B091500340E050E0E12C20
:101DA000F12C109709F44AC0A815B905D1F56D902A
:101DB0007C901197630182E0C80ED11CCA14DB0429
:101DC00080F1A3014A195B096A0182E0C80ED11CA7
:101DD0001296BC9012971396AC91B5E0CB16D10435
:101DE00040F0B282A38351834083D9016D937C93E9
:101DF0000AC00E5F1F4FC301800F911FF90191832D
:101E00008083EB2DFA2FE114F10431F0D701139602
:101E1000FC93EE93129744C0F0935003E0934F036A
:101E20003FC08D919C9111974817590708F4AC0158
:101E30007D0112960D90BC91A02DB3CF80914D03E2
:101E400090914E0388159905E1F446175707C8F499
:101E50008091000190910101009741F48DB79EB7E8
:101E60004091040150910501841B950BE817F90777
:101E7000C8F4F0934E03E0934D03F901718360833E
:101E80000FC0CB010E94620D7C01009759F0A801A0
:101E9000BE010E945E0FCE010E94F70DC70104C073
:101EA000CE0102C080E090E0CDB7DEB7EEE00C944A
:101EB000F71081E090E0F8940C940E11FB01DC0126
:101EC00002C001900D9241505040D8F70895FB0197
:101ED000DC018D91019080190110D9F3990B0895BF
:101EE000FB01DC0101900D920020E1F708951F93A2
:101EF000FC0199278827BC01E89411911032E9F37D
:101F0000193010F01E30C8F31B3251F01D3249F465
:101F1000689406C00E949E0F610F711D811D911D66
:101F2000119110531A30B0F33EF49095809570954E
:101F300061957F4F8F4F9F4F1F910895592F482FC5
:101F4000372F262F660F771F881F991F660F771F61
:101F5000881F991F620F731F841F951F660F771FBD
:101F6000881F991F08950E94F50F08F481E00895D5
:101F7000E89409C097FB3EF4909580957095619523
:101F80007F4F8F4F9F4F9923A9F0F92F96E9BB27D9
:101F90009395F695879577956795B795F111F8CF55
:101FA000FAF4BB0F11F460FF1BC06F5F7F4F8F4FC0
:101FB0009F4F16C0882311F096E911C0772321F0B6
:101FC0009EE8872F762F05C0662371F096E8862F4E
:101FD00070E060E02AF09A95660F771F881FDAF7A5
:101FE000880F9695879597F90895990F0008550FD2
:101FF000AA0BE0E8FEEF16161706E807F907C0F08F
:1020000012161306E407F50798F0621B730B840B96
:10201000950B39F40A2661F0232B242B252B21F470
:1020200008950A2609F4A140A6958FEF811D811D10
:1020300008950E942C100C949D100E948F1038F06F
:102040000E94961020F0952311F00C9486100C94A9
:102050008C1011240C94D1100E94AE1070F3959F37
:10206000C1F3950F50E0551F629FF001729FBB278F
:10207000F00DB11D639FAA27F00DB11DAA1F649F2B
:102080006627B00DA11D661F829F2227B00DA11DDE
:10209000621F739FB00DA11D621F839FA00D611D64
:1020A000221F749F3327A00D611D231F849F600D85
:1020B000211D822F762F6A2F11249F5750409AF0AE
:1020C000F1F088234AF0EE0FFF1FBB1F661F771F3A
:1020D000881F91505040A9F79E3F510580F00C9405
:1020E00086100C94D1105F3FE4F3983ED4F38695AC
:1020F00077956795B795F795E7959F5FC1F7FE2BA5
:10210000880F911D9695879597F9089597F99F6780
:1021100080E870E060E008959FEF80EC089500246F
:102120000A941616170618060906089500240A943C
:1021300012161306140605060895092E0394000CC2
:1021400011F4882352F0BB0F40F4BF2B11F460FF51
:1021500004C06F5F7F4F8F4F9F4F089557FD90587A
:10216000440F551F59F05F3F71F04795880F97FB5B
:10217000991F61F09F3F79F0879508951216130615
:102180001406551FF2CF4695F1DF08C01616170644
:102190001806991FF1CF8695710561050894089579
:1021A000E894BB2766277727CB0197F908952F92EC
:1021B0003F924F925F926F927F928F929F92AF92D7
:1021C000BF92CF92DF92EF92FF920F931F93CF9324
:1021D000DF93CDB7DEB7CA1BDB0B0FB6F894DEBFBB
:1021E0000FBECDBF09942A88398848885F846E84E1
:1021F0007D848C849B84AA84B984C884DF80EE802B
:10220000FD800C811B81AA81B981CE0FD11D0FB633
:10221000F894DEBF0FBECDBFED01089510E0CDE60E
:10222000D0E004C0FE010E94200C2196CE36D107DA
:06223000C9F7F894FFCF8E
:10223600000051038000000000004D021F02CF0382
:102246000B04B9037703560322030103AB026702AB
:10225600000000003B01B7000401E200F600820125
:0A2266005A45524F004D4F564500F7
:107E0000112484B714BE81FFF0D085E080938100F7
:107E100082E08093C00088E18093C10086E0809377
:107E2000C20080E18093C4008EE0C9D0259A86E02C
:107E300020E33CEF91E0309385002093840096BBD3
:107E4000B09BFECF1D9AA8958150A9F7CC24DD24C4
:107E500088248394B5E0AB2EA1E19A2EF3E0BF2EE7
:107E6000A2D0813461F49FD0082FAFD0023811F036
:107E7000013811F484E001C083E08DD089C08234E0
:107E800011F484E103C0853419F485E0A6D080C0E4
:107E9000853579F488D0E82EFF2485D0082F10E0AE
:107EA000102F00270E291F29000F111F8ED06801E7
:107EB0006FC0863521F484E090D080E0DECF843638
:107EC00009F040C070D06FD0082F6DD080E0C81688
:107ED00080E7D80618F4F601B7BEE895C0E0D1E017
:107EE00062D089930C17E1F7F0E0CF16F0E7DF06D8
:107EF00018F0F601B7BEE89568D007B600FCFDCFD4
:107F0000A601A0E0B1E02C9130E011968C91119780
:107F100090E0982F8827822B932B1296FA010C0160
:107F200087BEE89511244E5F5F4FF1E0A038BF0790
:107F300051F7F601A7BEE89507B600FCFDCF97BE46
:107F4000E89526C08437B1F42ED02DD0F82E2BD052
:107F50003CD0F601EF2C8F010F5F1F4F84911BD097
:107F6000EA94F801C1F70894C11CD11CFA94CF0C13
:107F7000D11C0EC0853739F428D08EE10CD085E9AC
:107F80000AD08FE07ACF813511F488E018D01DD067
:107F900080E101D065CF982F8091C00085FFFCCF94
:107FA0009093C60008958091C00087FFFCCF809118
:107FB000C00084FD01C0A8958091C6000895E0E648
:107FC000F0E098E1908380830895EDDF803219F02E
:107FD00088E0F5DFFFCF84E1DECF1F93182FE3DFCA
:107FE0001150E9F7F2DF1F91089580E0E8DFEE27F6
:047FF000FF270994CA
:027FFE00040479
:0400000300007E007B
:00000001FF
